:100000000C94F5030C941D040C941D040C94CA0B61
:100010000C94CA0B0C94CA0B0C941D040C94160B74
:100020000C941D040C941D040C94890C0C94FC0C71
:100030000C94420C0C941D040C941D040C941D048F
:100040000C94CC0A0C941D040C94980B0C94720B19
:100050000C941D040C941D040C941D040C941D049C
:100060000C941D040C941D045B53494D554C415494
:10007000494F4E5D204446506C61796572204D6950
:100080006E69205669727475616C20417564696F80
:10009000204465636F64657220696E697469616C80
:1000A000697A65642E005B53494D554C4154494F64
:1000B0004E5D2053494D3830304C2056697274756E
:1000C000616C2043656C6C756C6172204D6F64656A
:1000D0006D20696E697469616C697A65642E0020AF
:1000E00054494D454F555420284E6574776F726BB7
:1000F00020726567697374726174696F6E206661DE
:10010000696C656429005B53595354454D5D20412A
:10011000726D656420616E64207265616479206629
:100120006F7220656D657267656E637920646973AF
:10013000747265737320696E7075742E00202F20A1
:1001400033312900205245474953544552454420F4
:10015000284353513A20005B47534D5D2057616956
:1001600074696E6720666F722063656C6C756C6174
:1001700072206E6574776F726B2072656769737435
:10018000726174696F6E2E2E2E20005245414459C3
:10019000005B47534D5D20436865636B696E672064
:1001A00053494D2063617264207374617475732EBA
:1001B0002E2E20004F4B005B47534D5D20496E694A
:1001C0007469616C697A696E672053494D383030C3
:1001D0004C206D6F64756C652E2E2E20004F4B00E9
:1001E0005B415544494F5D20496E697469616C6992
:1001F0007A696E67204446506C61796572204D695A
:100200006E692E2E2E20003D3D3D3D3D3D3D3D3D48
:100210003D3D3D3D3D3D3D3D3D3D3D3D3D3D3D3D0E
:100220003D3D3D3D3D3D3D3D3D3D3D3D3D3D3D3DFE
:100230003D3D3D3D3D00205374616E64616C6F6EC9
:100240006520486F6D6520456D657267656E6379E1
:100250002044697370617463682053797374656DA9
:1002600020202020000A3D3D3D3D3D3D3D3D3D3DA2
:100270003D3D3D3D3D3D3D3D3D3D3D3D3D3D3D3DAE
:100280003D3D3D3D3D3D3D3D3D3D3D3D3D3D3D3D9E
:100290003D3D3D3D000A3E3E3E204D4544494341E3
:1002A0004C20425554544F4E2054524947474552D2
:1002B0004544203C3C3C000A3E3E3E2046495245D7
:1002C00020425554544F4E205452494747455245B9
:1002D00044203C3C3C000A3E3E3E20504F4C4943AB
:1002E0004520425554544F4E205452494747455299
:1002F0004544203C3C3C005B4449535041544348F6
:100300005D20477261636520706572696F64206566
:100310007870697265642E20456E676167696E67E3
:1003200020656D657267656E6379206469737061BD
:100330007463682100207365636F6E647320726557
:100340006D61696E696E672E2E2E005B434F554EB0
:1003500054444F574E5D2041626F72742077696E2E
:10036000646F773A20005B41424F52545D204361F5
:100370006E63656C20627574746F6E207072657345
:100380007365642120456D657267656E63792061D0
:10039000626F727465642E0022005B53494D554CA8
:1003A0004154494F4E5D20426F64793A2022005BF0
:1003B00053494D554C4154494F4E5D205265636938
:1003C0007069656E743A20005B53494D554C415439
:1003D000494F4E5D203E3E3E204F5554474F494EBB
:1003E0004720454D455247454E435920534D5320D4
:1003F0003C3C3C005B534D535D204261636B757028
:1004000020534D53207375636365737366756C6C0D
:10041000792073656E742E005B534D535D204469E3
:10042000737061746368696E67206261636B757075
:1004300020656D657267656E637920534D53206149
:100440006C6572742E2E2E00203C3C3C005B5349A0
:100450004D554C4154494F4E5D203E3E3E2044494F
:10046000414C494E472043414C4C20544F3A2000C8
:100470005B43414C4C5D204469616C20636F6D6D42
:10048000616E642073656E742E204D6F6E69746F9B
:1004900072696E672063616C6C2073746174652E81
:1004A0002E2E00292E2E2E002F0020284174746538
:1004B0006D7074200020617420005B43414C4C5DE2
:1004C000204469616C696E6720005B43414C4C5D60
:1004D000203E3E3E2043414C4C20414E5357455216
:1004E000454420414E4420434F4E4E4543544544DD
:1004F000203C3C3C005B43414C4C5D2052696E67A4
:10050000696E672074696D656F757420286E6F2041
:10051000616E73776572206166746572203435731D
:10052000292E005B41424F52545D2043616E63654A
:100530006C20627574746F6E20707265737365647D
:100540002E205465726D696E6174696E67206361F7
:100550006C6C2E002E6D703320696E746F20636199
:100560006C6C206C696E65203C3C3C005B53494DD3
:10057000554C4154494F4E5D203E3E3E20506C61EB
:1005800079696E6720417564696F202F6D70332F14
:10059000303030005B43414C4C5D20416C6C20722C
:1005A000657065746974696F6E732066696E6973CE
:1005B0006865642E20477261636566756C6C79208E
:1005C00068616E67696E672075702063616C6C2E60
:1005D000005B415544494F5D2050617573696E67FA
:1005E0002032207365636F6E6473206265666F727C
:1005F00065206E657874207265706561742E2E2E8C
:10060000005B415544494F5D20547261636B207219
:10061000657065746974696F6E2066696E69736868
:1006200065642E00292E2E2E002F00202852657082
:1006300065746974696F6E20005B415544494F5D74
:1006400020506C6179696E6720766F6963652070F0
:1006500061796C6F616420747261636B2023005B4D
:1006600043414C4C5D2052656D6F74652064697325
:100670007061746368657220656E64656420746877
:10068000652063616C6C2E005B41424F52545D20CB
:1006900043616E63656C20627574746F6E20707256
:1006A000657373656420647572696E6720706C6130
:1006B000796261636B2E20456E64696E67206361A9
:1006C0006C6C2E002E2E2E005B52455452595D202C
:1006D00057616974696E672033207365636F6E6458
:1006E00073206265666F726520617474656D7074E5
:1006F00020005B414C4552545D204D617820646977
:10070000616C2072657472696573206578636565D4
:100710006465642120456D657267656E6379206349
:10072000616C6C20756E616E7377657265642E0006
:100730005B53595354454D5D204E6574776F726B12
:100740002072652D65737461626C69736865642ECF
:100750002041726D696E672073797374656D2E0028
:1007600000000000240027002A000000000800020A
:1007700001000003040700000000000000005B53BC
:10078000494D554C4154494F4E5D203E3E3E20431D
:10079000414C4C205445524D494E4154454420282B
:1007A00041544829203C3C3C00020000000023004A
:1007B0002600290000000000250028002B0004046A
:1007C00004040404040402020202020203030303F9
:1007D00003030102040810204080010204081020D5
:1007E000010204081020820D511411241FBECFEF06
:1007F000D8E0DEBFCDBF23E0ACEEB1E001C01D927A
:10080000AC3DB207E1F711E0A0E0B1E0E6E8FFE2BD
:1008100002C005900D92AC3EB107D9F713E0C4EFCA
:10082000D3E004C02197FE010E940215C33FD10707
:10083000C9F70E946A0E0C94B6170C94000083301E
:1008400081F028F4813099F08230A9F00895873042
:10085000A9F08830C9F08430B1F4809180008F7D98
:1008600003C0809180008F7780938000089584B5C5
:100870008F7784BD089584B58F7DFBCF8091B000C4
:100880008F778093B00008958091B0008F7DF9CF6D
:100890001F93CF93DF93282F30E0F901E659F84FEB
:1008A0008491F901EE52F84FD491F901E254F84FD6
:1008B000C491CC23A9F0162F81110E941F04EC2FA4
:1008C000F0E0EE0FFF1FEC54F84FA591B4918FB7F5
:1008D000F894EC91111108C0D095DE23DC938FBF02
:1008E000DF91CF911F910895DE2BF8CFCF93DF9347
:1008F00090E0FC01EE52F84F24918254984FFC0195
:1009000084918823C9F090E0880F991FFC01E05A78
:10091000F84FA591B491FC01EC54F84FC591D491D6
:1009200061110DC09FB7F8948C91209582238C9310
:100930008881282328839FBFDF91CF91089562305B
:1009400051F49FB7F8943C91822F809583238C9328
:10095000E8812E2BEFCF8FB7F894EC912E2B2C93B0
:100960008FBFEACF8F929F92AF92BF92CF92DF92CA
:10097000EF92FF92CF936B0190911C01891769F060
:100980009F3F09F46FC0CF91FF90EF90DF90CF9021
:10099000BF90AF909F908F900895E9EAF7E0C491DF
:1009A000C7FDF1CF61E00E947604CC2319F0C2307C
:1009B00009F02CC1F12CE12C60E072E18AE790E0B3
:1009C000A70196010E94E31449015A01DA01C90105
:1009D0000197A109B1098F3F9105A105B10509F062
:1009E0000CF4F8C060E472E48FE090E0A701960197
:1009F0000E94E3142150310941095109C23009F024
:100A0000AAC082E02F3F31054105510509F00CF4E1
:100A100092C160E970ED83E090E0A70196010E9429
:100A2000E314215031094109510983E02F3F310579
:100A30004105510509F00CF47EC168E478EE81E0CF
:100A400090E0A70196010E94E31421503109410969
:100A500051092F3F31054105510511F00CF099C0A6
:100A600084E069C180931C01E9EAF7E0C491CF3FBB
:100A700009F489CFC13039F148F0C23009F445C0DA
:100A8000C7FD81CF61E00E94760491CF14BC15BCF4
:100A900094B5926094BD95B5916095BD282F30E0D6
:100AA000F901E254F84FE491F0E0EE0FFF1FEC542F
:100AB000F84F45915491F901EE52F84FE491E093CB
:100AC000F502C0E06FCF10928000109281009091EB
:100AD0008100986090938100909181009160909343
:100AE0008100282F30E0F901E254F84FE491F0E062
:100AF000EE0FFF1FEC54F84F45915491F901EE525F
:100B0000F84FE491E093F4024DCF1092B0001092B0
:100B1000B1009091B00092609093B0009091B100BC
:100B200091609093B100282F30E0F901E254F84F22
:100B3000E491F0E0EE0FFF1FEC54F84F4591549113
:100B40005093F3024093F202F901EE52F84FE49110
:100B5000E093F10227CF2F3F31054105510509F000
:100B60000CF452C068E478EE81E090E0A7019601B1
:100B70000E94E3142150310941095109CC2309F4A1
:100B8000AFC02F3F31054105510511F00CF0B0C049
:100B900067CF64E274EF80E090E0A70196010E94C5
:100BA000E314215031094109510985E02F3F3105F6
:100BB0004105510509F008F4BEC062E17AE780E022
:100BC00090E0A70196010E94E314215031094109E8
:100BD00051099CC09C0181E0C111ADC095B5987FC1
:100BE000892B85BD27BD8FEF9FEFDC018093FE022F
:100BF0009093FF02A0930003B093010380916E00D5
:100C0000826080936E00BFCE82E0E6CFF12CE12CB3
:100C100060E072E18AE790E0A70196010E94E31488
:100C2000215031094109510991E02115310581E037
:100C3000480751056CF068E478EE81E090E0A70188
:100C400096010E94E314215031094109510993E0B2
:100C5000C13009F076C080918100887F892B809314
:100C6000810030938900209388008FEF9FEFDC0193
:100C70008093FA029093FB02A093FC02B093FD02D2
:100C800080916F00826080936F007DCE2093B300CF
:100C90008FEF9FEFDC018093F6029093F702A09311
:100CA000F802B093F9028091700082608093700026
:100CB0006ACE84E02F3F31054105510509F008F463
:100CC0008DCF9AE0B594A794979487949A95D1F78D
:100CD000A5019401215031094109510985E07ECFD8
:100CE00083E02F3F31054105510509F00CF476CF23
:100CF00062E17AE780E090E0A70196010E94E314A8
:100D00002150310941095109CC2399F286E02F3F46
:100D100031054105510579F070F08AE0B594A7944A
:100D2000979487948A95D1F7A501940121503109B0
:100D30004109510987E09091B100987F892B8093F8
:100D4000B100C13009F48DCFC23009F49FCFC11179
:100D50001ACE48CF3FB7F8948091ED029091EE0201
:100D6000A091EF02B091F00226B5A89B05C02F3FDD
:100D700019F00196A11DB11D3FBFBA2FA92F982FC1
:100D80008827BC01CD01620F711D811D911D42E0BC
:100D9000660F771F881F991F4A95D1F708958F9284
:100DA0009F92AF92BF92CF92DF92EF92FF924B0150
:100DB0005C010E94AA066B017C010E94AA066C19C4
:100DC0007D098E099F09683E734081059105A8F34E
:100DD00021E0821A9108A108B10888EEC80E83E0CC
:100DE000D81EE11CF11C81149104A104B10429F75F
:100DF000FF90EF90DF90CF90BF90AF909F908F903B
:100E000008952FB7F8946091E9027091EA028091F9
:100E1000EB029091EC022FBF089590911C01891371
:100E20000BC0E9EAF7E0E4919FEF90931C01E130F9
:100E300049F028F0E23061F060E00C944804109230
:100E40006E00FACF90916F009D7F90936F00F4CF6A
:100E5000909170009D7F9093700091E09093B0000E
:100E60009091B100987F94609093B1001092B3007C
:100E7000E3CFCF93DF93C6EDD3E060E679E08881DE
:100E80000E94B20460E570E080E090E00E94CF062E
:100E900060E87CE088810E94B20464E670E080E053
:100EA00090E00E94CF0688810E940D071982DF9191
:100EB000CF910895CF93DF93C6EDD3E060EF7AE052
:100EC00088810E94B20464E670E080E090E00E94B5
:100ED000CF0668E775E088810E94B20466E970E099
:100EE00080E090E00E94CF0688810E940D07198261
:100EF000DF91CF910895AF92BF92CF92DF92EF92A0
:100F0000FF920F931F93CF93DF936C017B018B01B3
:100F1000040F151FEB015E01AE18BF08C017D10703
:100F200059F06991D601ED91FC910190F081E02D8D
:100F3000C6010995892B79F7C501DF91CF911F91E2
:100F40000F91FF90EF90DF90CF90BF90AF900895FA
:100F5000FC01538D448D252F30E0842F90E0821BBF
:100F6000930B541710F0CF96089501970895FC0144
:100F7000918D828D981761F0A28DAE0FBF2FB11D9C
:100F80005D968C91928D9F5F9F73928F90E00895F4
:100F90008FEF9FEF0895FC01918D828D981731F0AE
:100FA000828DE80FF11D858D90E008958FEF9FEF02
:100FB0000895FC01918D228D892F90E0805C9F4FD8
:100FC000821B91098F739927089582E093E00E9414
:100FD000D90721E0892B09F420E0822F089580E0D1
:100FE00090E0892B29F00E94E50781110C94000004
:100FF0000895FC01A48DA80FB92FB11DA35ABF4FAE
:101000002C91848D90E001968F739927848FA68907
:10101000B7892C93A089B1898C91837080648C935B
:10102000938D848D981306C00288F389E02D80810A
:101030008F7D80830895EF92FF920F931F93CF933C
:10104000DF93EC0181E0888F9B8D8C8D98131AC003
:10105000E889F989808185FF15C09FB7F894EE89EA
:10106000FF896083E889F989808183708064808347
:101070009FBF81E090E0DF91CF911F910F91FF9092
:10108000EF900895F62E0B8D10E00F5F1F4F0F733A
:101090001127E02E8C8D8E110CC00FB607FCFACFF5
:1010A000E889F989808185FFF5CFCE010E94F90793
:1010B000F1CFEB8DEC0FFD2FF11DE35AFF4FF082C6
:1010C0009FB7F8940B8FEA89FB8980818062CFCF2C
:1010D000EF92FF920F931F93CF93DF938C017B01CD
:1010E000D0E0C0E0F701EC0FFD1F6491662339F0FA
:1010F000C8010E941B08892B11F02196F3CFCE0165
:10110000DF91CF911F910F91FF90EF900895CF93B2
:10111000DF93EC01888D8823B9F0AA89BB89E8891F
:10112000F9898C9185FD03C0808186FD0DC00FB6C5
:1011300007FCF7CF8C9185FFF2CF808185FFEDCF43
:10114000CE010E94F907E9CFDF91CF910895209158
:10115000CE023091CF022817390771F49091CD0259
:101160008091CC02981741F0E091CD02F0E0E45775
:10117000FD4F808190E008958FEF9FEF08950895CF
:10118000EF92FF920F931F93CF93DF93DC015C9656
:10119000ED90FC905D97E114F10479F481E090E02A
:1011A00013969C938E93129790E080E0DF91CF91FD
:1011B0001F910F91FF90EF9008955196ED91FC9142
:1011C000529750968C915097982F90950FB75E96A6
:1011D0002C915E97122F127021FD6095F89420815A
:1011E000112319F1282B2083E7012197F1F728E03B
:1011F000462F50E0308160FF1AC0382B3083E70162
:101200002197F1F7BA0175956795215089F7112358
:1012100081F08081892380830FBF5C968D919C91A2
:101220000197F1F781E090E0C1CF2923DCCF39238A
:10123000E5CF9081892BEFCF2091CE023091CF0264
:101240002817390761F48091CC022091CD0290E0FB
:10125000805C9F4F821B91098F739927089590E0BE
:1012600080E008952091CE023091CF0228173907EF
:10127000B9F49091CD028091CC02981789F0E09159
:10128000CD02F0E0E457FD4F80812091CD0230E0A7
:101290002F5F3F4F2F7333272093CD0290E00895A7
:1012A0008FEF9FEF089550918B0240918A02852F16
:1012B00090E0242F30E0541718F0821B930B089510
:1012C000805B9F4FFACF80918B02E0918A028E174C
:1012D00051F0EF5FE03508F0E0E0F0E0E65CFD4F54
:1012E000808190E008958FEF9FEF089580918B02A9
:1012F00090918A02891769F09F5F903508F090E01D
:10130000E92FF0E0E65CFD4F808190938A0290E047
:1013100008958FEF9FEF08958F929F92AF92BF92A3
:10132000FF920F931F93CF93DF93EC01288130E05E
:10133000F901E659F84F8491F901EE52F84F049102
:10134000F901E254F84F1491112309F440C08111BE
:101350000E941F04E12FF0E0EE0FFF1FE655F84F4B
:10136000A591B491EC910E2391E080E009F490E016
:10137000092F182F802F8170F82E89818F1531F059
:101380000E9401076B837C838D839E830E940107EB
:101390008B809C80AD80BE80681979098A099B0981
:1013A0006932710581059105A8F08A818F1591F048
:1013B000FA82012B79F4198281E0DF91CF911F919C
:1013C0000F91FF90BF90AF909F908F90089510E085
:1013D00000E0D0CFF98280E0F0CF8091340281111B
:1013E000FCCF0895809131028F5F843408F080E053
:1013F000909130029817E1F32FB7F894909134024E
:10140000992359F0E82FF0E0E451FE4F6083809378
:1014100031022FBF81E090E0089581E08093340293
:10142000609333021092320282E086BB80916F009B
:10143000826080936F00809180008F7B80688093B2
:10144000800080918400909185004096909389005F
:1014500080938800DECF90E080E00895FB0101904A
:101460000020E9F73197AF01461B570B0C947B071F
:101470008F929F92AF92BF920F931F93CF93DF9360
:10148000CDB7DEB7A1970FB6F894DEBF0FBECDBFC4
:1014900019A2423008F44AE08E010F5D1F4F842EDE
:1014A000912CB12CA12CA50194010E94C114E62F0E
:1014B000B901CA01EA3004F5E05DD801EE938D016F
:1014C000232B242B252B79F790E080E0109729F02F
:1014D000BD0182E093E00E942E0AA1960FB6F89417
:1014E000DEBF0FBECDBFDF91CF911F910F91BF9097
:1014F000AF909F908F900895E95CDFCFCF92DF92FD
:10150000EF92FF92CF93DF936C01990FEE08FF08E3
:10151000F7FE19C06DE282E093E00E941B08EC0127
:1015200066277727CB016C197D098E099F094AE050
:101530000E94380A8C0F9D1FDF91CF91FF90EF9092
:10154000DF90CF9008954AE0C701B601DF91CF91B7
:10155000FF90EF90DF90CF900C94380A0F931F9379
:10156000CF93DF93EC010E9468088C0169E571E07C
:10157000CE010E942E0A800F911FDF91CF911F9103
:101580000F9108956EE777E082E093E00E94AE0A43
:101590001092B00381E008951F920F920FB60F9240
:1015A00011242F933F938F939F93AF93BF93809179
:1015B000E9029091EA02A091EB02B091EC02309125
:1015C000E80223E0230F2D3758F50196A11DB11D28
:1015D0002093E8028093E9029093EA02A093EB0241
:1015E000B093EC028091ED029091EE02A091EF0297
:1015F000B091F0020196A11DB11D8093ED02909370
:10160000EE02A093EF02B093F002BF91AF919F91D1
:101610008F913F912F910F900FBE0F901F901895B3
:1016200026E8230F0296A11DB11DD2CF1F920F9263
:101630000FB60F9211242F933F934F935F936F93A5
:101640007F938F939F93AF93BF93EF93FF9380917B
:10165000F6029091F702A091F802B091F902892B5D
:101660008A2B8B2BD1F19091F102E091F202F09153
:10167000F3028081892780838091F6029091F7029E
:10168000A091F802B091F902181619061A061B0665
:101690009CF48091F6029091F702A091F802B0912B
:1016A000F9020197A109B1098093F6029093F7021C
:1016B000A093F802B093F902FF91EF91BF91AF911F
:1016C0009F918F917F916F915F914F913F912F915A
:1016D0000F900FBE0F901F90189580911C010E94D3
:1016E0000D07EACF1F920F920FB60F9211242F937E
:1016F0003F934F935F936F937F938F939F93AF939A
:10170000BF93EF93FF9382E093E00E94F907FF916C
:10171000EF91BF91AF919F918F917F916F915F9169
:101720004F913F912F910F900FBE0F901F901895E2
:101730001F920F920FB60F9211242F938F939F93A6
:10174000EF93FF93E0911203F09113038081E091F6
:101750001803F091190382FD1BC0908180911B0337
:101760008F5F8F7320911C03821741F0E0911B0360
:10177000F0E0EE5FFC4F958F80931B03FF91EF919C
:101780009F918F912F910F900FBE0F901F901895E2
:101790008081F4CF1F920F920FB60F9211242F93D6
:1017A0003F934F935F936F937F938F939F93AF93E9
:1017B000BF93EF93FF93E091CE02F091CF02309769
:1017C00049F0A685B7858585968D91FF14C09C91BB
:1017D0008923A1F4FF91EF91BF91AF919F918F91D8
:1017E0007F916F915F914F913F912F910F900FBE1D
:1017F0000F901F9018959C91892361F7A389B48954
:101800009C918589809589238C93868997890197F6
:10181000F1F7608D718DA685B785558538E020E09C
:10182000CB010197F1F7822F90E095958795282FAE
:101830004C91452309F02068315091F7868D81FD48
:1018400020958091CC0290E001968F73992730917A
:10185000CD02381799F0A091CC02B0E0A457BD4F4B
:101860002C938093CC02828D938D0197F1F7A389FD
:10187000B4898C919589892B8C93ACCF868D8160AE
:10188000868FF1CF1F920F920FB60F9211242F93D4
:101890008F939F93EF93FF9380916F008B7F809343
:1018A0006F00809181008F7B80938100809139024D
:1018B00020913802205890913702893020F4969573
:1018C000922B8F5FFACF9093370280918B028F5FBC
:1018D000803508F080E020918A02281739F0E82F3F
:1018E000F0E0E65CFD4F908380938B02109239020A
:1018F000809181008F7B8093810010923802FF914C
:10190000EF919F918F912F910F900FBE0F901F908D
:1019100018951F920F920FB60F9211242F933F9399
:101920004F938F939F93EF93FF9320918600309175
:1019300087004091380280918100442349F18F7BD8
:10194000809381001092380290913902911127C042
:10195000411112C030938B0020938A0084E086BB33
:1019600080916F00846080936F00309336022093E3
:10197000350281E080933902FF91EF919F918F9121
:101980004F913F912F910F900FBE0F901F90189580
:1019900080648093810080E880933802D5CF809165
:1019A0003702209138028695822B9F5F9930D8F3B9
:1019B0008093370280916F008B7F80936F008091BE
:1019C0008B028F5F803508F080E090918A02981733
:1019D00049F0E82FF0E090913702E65CFD4F9083EC
:1019E00080938B02809181008F7B80938100109285
:1019F000380210923902C0CF1F920F920FB60F9289
:101A000011242F933F934F935F938F939F93EF9363
:101A1000FF938091340220913302409188005091CD
:101A20008900909132028A30F0F4322F317089307F
:101A300009F431E026958F5F9317A9F39091800008
:101A4000332371F0906C9093800050938900409301
:101A5000880030933202209333028093340212C004
:101A60009F7B9068F0CF90913102E09130029E13FD
:101A700023C08A30A1F48BE0809334025093890014
:101A800040938800FF91EF919F918F915F914F91CB
:101A90003F912F910F900FBE0F901F9018951092AD
:101AA0003402809180008F738093800080916F005A
:101AB0008D7F80936F00E6CFEF5FE43408F0E0E0C5
:101AC000E0933002F0E0E451FE4F908190933302B6
:101AD00010923202909180009F7B906890938000DA
:101AE0008A3031F4509389004093880081E0B5CF6B
:101AF0008091840090918500409690938900809316
:101B00008800F4CF109205031092040388EE93E04E
:101B1000A0E0B0E08093060390930703A09308032E
:101B2000B093090327E231E03093030320930203CB
:101B300025EC30E030930F0320930E0324EC30E0CB
:101B4000309311032093100320EC30E03093130303
:101B50002093120321EC30E03093150320931403FB
:101B600022EC30E0309317032093160326EC30E08C
:101B7000309319032093180310921B0310921C0337
:101B800010921D0310921E0327E02093D60310929B
:101B9000D7031092D8031092D9031092DA0310924F
:101BA000DB0326E02093B1031092B5031092B40337
:101BB0008093B6039093B703A093B803B093B9038F
:101BC0008BE491E09093B3038093B2031092C90326
:101BD0001092C8031092CB031092CA031092CD0347
:101BE0001092CC031092CF031092CE036091D003D9
:101BF0006E7F6D7F6093D0036695617081E068278A
:101C00008AE00E94480461E08AE00E947604ECEDDC
:101C1000F7E0E491E093C203E8ECF7E0E491F0E050
:101C2000EE0FFF1FEC54F84F859194919093C403ED
:101C30008093C30360E08BE00E9476048091D00320
:101C400081FD04C061E08BE00E9448048BE080933A
:101C5000BE03EDEDF7E0E491E093BF03E9ECF7E0BC
:101C6000E491F0E0EE0FFF1FE655F84F8591949157
:101C70009093C1038093C0031092D1031092D203BA
:101C80001092D3031092D4031092D5038EE0809368
:101C90009F031092A3031092A20388EE93E0A0E0AA
:101CA000B0E08093A4039093A503A093A603B09300
:101CB000A70389E391E09093A1038093A00310927E
:101CC000AC031092AD031092AE031092AF031092CA
:101CD000B0030895CF93DF93CDB7DEB7C059D109D4
:101CE0000FB6F894DEBF0FBECDBF789484B5826086
:101CF00084BD84B5816084BD85B5826085BD85B5B0
:101D0000816085BD80916E00816080936E0010922D
:101D100081008091810082608093810080918100A8
:101D20008160809381008091800081608093800039
:101D30008091B10084608093B1008091B000816097
:101D40008093B00080917A00846080937A008091C3
:101D50007A00826080937A0080917A00816080931B
:101D60007A0080917A00806880937A001092C10096
:101D7000E0911203F091130382E08083E0910E035F
:101D8000F0910F031082E0911003F09111038FEC9A
:101D9000808310921A03E0911603F091170386E0F6
:101DA0008083E0911403F09115038081806180832A
:101DB000E0911403F0911503808188608083E091A5
:101DC0001403F0911503808180688083E0911403EF
:101DD000F091150380818F7D808365E672E082E05B
:101DE00093E00E94AE0A66E372E082E093E00E9414
:101DF000AE0A67E072E082E093E00E94AE0A61E022
:101E00008CE00E94760461E08DE00E94760460E040
:101E10008CE00E94480461E08DE00E94480461E08B
:101E20008091D6030E9476048091D6030E940D070C
:101E300062E082E00E94760462E083E00E94760421
:101E400062E084E00E94760462E085E00E9476040D
:101E500060EE71E082E093E00E94680862E08091A9
:101E6000B1030E94760468E670E082E093E00E948D
:101E7000AE0A1092D5036DED71E082E093E00E940E
:101E8000AE0A67EB71E082E093E00E94680866EAC0
:101E900070E082E093E00E94AE0A64EB71E082E0C1
:101EA00093E00E94AE0A61E971E082E093E00E9453
:101EB00068086BE871E082E093E00E94AE0A67E593
:101EC00071E082E093E00E9468080E9401074B01E4
:101ED0005C010E940107681979098A099B0960332E
:101EE00075478105910508F44DC06FED70E082E003
:101EF00093E00E94AE0A88E090E09093E70280931E
:101F0000E602EE24E394F12CDD24D39454E0252E54
:101F1000312C62E0A62EB12C75E0872E912C809199
:101F2000D7038823A9F00E9401070091D8031091DC
:101F3000D9032091DA033091DB0360177107820720
:101F4000930730F08091D6030E940D071092D703BB
:101F50000E9401070091E6021091E7020830110586
:101F6000C0F50330110508F019C10130110509F45D
:101F700081C00230110509F4BBC0F092E702E09283
:101F8000E602A7C064E471E082E093E00E94680882
:101F90008AE190E00E947E0A6DE371E082E093E0C6
:101FA0000E94AE0A60E08DE00E94480461E08CE08F
:101FB0000E9448040E94390781E090E09093E70274
:101FC0008093E60266E071E082E093E00E94AE0A50
:101FD00098CF0830110589F60091D1021091D202F4
:101FE0002091D3023091D4022B013C01401A510AB6
:101FF000620A730A930182010835124021053105F6
:10200000A0F06093D1027093D2028093D302909398
:10201000D4026091D0026D256093D0028DE00E94C1
:10202000480460E08CE00E9448040E94010700918F
:10203000E2021091E3022091E4023091E502601B7C
:10204000710B820B930B603177428105910508F487
:1020500040C00E9401076093E2027093E302809304
:10206000E4029093E50260E377E082E093E00E946F
:10207000AE0A83CF61E08CE00E94480460E08DE00E
:102080000E9448048EE091E00E948C09882309F4A4
:1020900059C11093E0020093DF0266ED72E082E026
:1020A00093E00E94AE0A0E9401076093D9027093E8
:1020B000DA028093DB029093DC021092D502109238
:1020C000D6021092D7021092D802B092E702A092E4
:1020D000E60280E0482E80E0582E452809F41FCF04
:1020E0000E94E507882309F40FCF0E9400000CCF5F
:1020F0000091D1021091D2022091D3023091D402EA
:102100002B013C01401A510A620A730A93018201B1
:102110000639110521053105A8F06093D1027093AD
:10212000D2028093D3029093D4021091D002612FF7
:102130006D256093D0028CE00E944804612F8DE0F1
:102140000E9448040E9401072B013C018091D902A2
:102150009091DA02A091DB02B091DC02C357DF4F0D
:1021600088839983AA83BB83CD58D04085E191E0D1
:102170000E948C09882309F420C166E673E082E09E
:1021800093E00E94AE0A0E945A071092E002109259
:10219000DF0260E08DE00E944804EFCE4090D10263
:1021A0005090D2026090D3027090D4029B01AC0197
:1021B000241935094609570929013A013AEF43160E
:1021C000510461047104A0F06093D1027093D202B3
:1021D0008093D3029093D4026091D0026D256093D6
:1021E000D0028DE00E94480460E08CE00E94480428
:1021F0000530110509F4E2C108F078C0043011057A
:1022000009F461C168E174E082E093E00E94AE0AE3
:1022100061E08DE00E9448048091DF029091E0022D
:1022200001978330910508F04BC1880F991FFC017D
:10223000E35EFE4F80819181A4E6B1E0BF93AF934E
:102240009F938F9335E8632E31E0732E7F926F92C8
:102250001F928CE88F9341E050E04C0F5D1F5F931D
:102260004F930E94081568EC73E082E093E00E94AF
:10227000AE0A6FEA73E082E093E00E94680866ECC1
:1022800071E082E093E00E942E0A69E571E082E04D
:1022900093E00E942E0A6AE973E082E093E00E94D4
:1022A0006808BE016F5F7F4F82E093E00E942E0AB4
:1022B00068E973E082E093E00E94AE0A60E971E0B1
:1022C00080E090E00E94CF0664EF73E082E093E04C
:1022D0000E94AE0A1092E1023092E7022092E602DA
:1022E0000FB6F894DEBF0FBECDBFF3CE063011059A
:1022F00009F4F6C10730110509F084CF1091E1020D
:102300001F5F1093E102133008F0B2C268EC76E070
:1023100082E093E00E946808812F90E001960E947D
:102320007E0A64EC76E082E093E00E94AE0A68EBFD
:102330007BE080E090E00E94CF063092E70220929E
:10234000E602C7CE87E091E00E948C09882339F02D
:10235000B092E002A092DF0267EB72E0A0CE80E0D4
:1023600091E00E948C09882349F083E090E09093EB
:10237000E0028093DF0265E972E091CE0E940107DE
:102380000091E2021091E3022091E4023091E50213
:10239000601B710B820B930B6033754781059105B0
:1023A00008F497CE0E9401076093E2027093E30263
:1023B0008093E4029093E5028CCEC357DF4F2881CF
:1023C00039814A815B81CD58D040421A530A640A50
:1023D000750A0E9401070091D5021091D602209142
:1023E000D7023091D802601B710B820B930B683EB1
:1023F00073408105910508F44CC00E940107609369
:10240000D5027093D6028093D7029093D80268E8E1
:1024100073E180E090E0641975098609970928EE58
:1024200033E040E050E00E94C11411E0120F6BE471
:1024300073E082E093E00E946808612F70E090E012
:1024400080E04AE00E94380A65E373E082E093E0AE
:102450000E94AE0AC401811B910928EC289FB0019B
:10246000299F700D11246053784F8091D6030E94EC
:10247000B204D092D7030E94010768587F4F8F4F54
:102480009F4F6093D8037093D9038093DA0390939E
:10249000DB0348E8441643E154066104710408F480
:1024A00018CE67EF72E082E093E00E94AE0A0E94CD
:1024B000390783E090E09093E7028093E60209CE2B
:1024C0008CE591E0B9CE6AEB74E082E093E00E9483
:1024D00068088091DF029091E002019783309105B6
:1024E00008F069C0880F991FFC01E35EFE4F608110
:1024F00071816115710521F082E093E00E942E0A3E
:1025000065EB74E082E093E00E94680863ED71E09F
:1025100082E093E00E942E0A6AEA74E082E093E08F
:102520000E9468088091E10290E001960E947E0A74
:1025300068EA74E082E093E00E94680883E090E03B
:102540000E947E0A63EA74E082E093E00E94AE0A91
:102550006DE474E082E093E00E94680863ED71E04E
:1025600082E093E00E942E0A68E474E082E093E047
:102570000E94AE0A0E9401076093AC037093AD0302
:102580008093AE039093AF03D092B00360E774E002
:1025900082E093E00E94AE0A0E9401076093D90294
:1025A0007093DA028093DB029093DC029092E70250
:1025B0008092E6028ECD6CE571E09ECF85E191E0E0
:1025C0000E948C09882379F063E275E082E093E051
:1025D0000E94AE0A0E94C20A0E945A071092E002AC
:1025E0001092DF02CACC0E9401070091D90210911B
:1025F000DA022091DB023091DC02601B710B820B4E
:10260000930B683C7F4A8105910580F065EF74E08B
:1026100082E093E00E94AE0A0E94C20A97E0492E2F
:10262000512C5092E7024092E60253CD8091B003C4
:10263000882309F44ECD0E9401070091AC0310914C
:10264000AD032091AE033091AF03601B710B820B81
:10265000930B683B7B408105910508F43ACD6AEC09
:1026600074E082E093E00E94AE0A68E077E0809137
:10267000D6030E94B20460E570E080E090E00E9422
:10268000CF0660E679E08091D6030E94B20460E54F
:1026900070E080E090E00E94CF0668EB7BE08091E4
:1026A000D6030E94B20468E770E080E090E00E94E8
:1026B000CF068091D6030E940D071092D7036CEDD0
:1026C00075E080E090E00E94CF061092DD0210924B
:1026D000DE0246E050E05093E7024093E602F9CC78
:1026E00085E191E00E948C09882349F068E876E052
:1026F00082E093E00E94AE0A1092D5036BCF8091E6
:10270000B003882309F464C00E9401078091DE02AF
:10271000811167C08091DF029091E00202E010E039
:102720008230910531F003E010E0039711F001E0F1
:1027300010E069E376E082E093E00E946808712C83
:10274000612C4AE0C301B8010E94380A6BE276E0CE
:1027500082E093E00E9468088091DD0290E001969B
:102760000E947E0A69E276E082E093E00E946808B7
:1027700083E090E00E947E0A64E276E082E093E0EB
:102780000E94AE0A6CE675E082E093E00E94680861
:102790004AE0C301B8010E94380A64E575E082E0AE
:1027A00093E00E94AE0A0E9401076093D1037093E8
:1027B000D2038093D3039093D403D092D5036CE2D9
:1027C00071E080E090E00E94CF06D092DE0281CCE2
:1027D0006FE576E082E093E00E94AE0A1092D503A6
:1027E000FDCE8091D5038823B1F00E9401070091AE
:1027F000D1031091D2032091D3033091D403601BF5
:10280000710B820B930B603A7F408105910508F4B0
:1028100060CC1092D50361E076E082E093E00E9404
:10282000AE0A8091DD028F5F8093DD021092DE029E
:10283000833068F461ED75E082E093E00E94AE0AB7
:1028400060ED77E080E090E00E94CF0642CC64E942
:1028500075E082E093E00E94AE0A68EE73E080E0EB
:1028600090E00E94CF060E94C20A0E943907B6CEAD
:1028700062EF76E082E093E00E94AE0A68E572E0E3
:102880008091D6030E94B2046CE271E080E090E097
:102890000E94CF068091D6030E940D071092D703A5
:1028A0009DCE89E391E09093A1038093A003809152
:1028B0006F008B7F80936F0080916F008F7D80937E
:1028C0006F0080918A0280938B0280913402811183
:1028D000FCCF80916F008D7F80936F008BE491E03F
:1028E0009093B3038093B2038091CE029091CF0274
:1028F000825B934071F4E091C503F091C60390812F
:102900008091C7038095892380831092CF02109213
:10291000CE0208952F923F924F925F926F927F92D4
:102920008F929F92AF92BF92CF92DF92EF92FF92DF
:102930000F931F93CF93DF93CDB7DEB7CA1BDB0B8B
:102940000FB6F894DEBF0FBECDBF09942A88398830
:1029500048885F846E847D848C849B84AA84B98437
:10296000C884DF80EE80FD800C811B81AA81B98143
:10297000CE0FD11D0FB6F894DEBF0FBECDBFED0157
:102980000895A1E21A2EAA1BBB1BFD010DC0AA1FB0
:10299000BB1FEE1FFF1FA217B307E407F50720F0C8
:1029A000A21BB30BE40BF50B661F771F881F991F43
:1029B0001A9469F760957095809590959B01AC018C
:1029C000BD01CF010895052E97FB1EF400940E94CF
:1029D000FA1457FD07D00E94C11407FC03D04EF42F
:1029E0000C94FA1450954095309521953F4F4F4FD8
:1029F0005F4F089590958095709561957F4F8F4FAB
:102A00009F4F0895EE0FFF1F0590F491E02D09945C
:102A1000AEE0B0E0EEE0F5E10C9498140D891E896B
:102A20008F89988D26E02C831A83098397FF02C033
:102A300080E090E801979E838D83AE01455E5F4FF5
:102A4000698D7A8DCE0101960E9438154D815E8187
:102A500057FD0AC02F813885421753070CF49A019D
:102A6000020F131FF80110822E96E4E00C94B414A8
:102A7000ABE0B0E0EEE3F5E10C948A147C013B019D
:102A80008A01FC0117821682838181FFC8C1CE01B1
:102A900001965C01F7019381F30193FD859193FF0A
:102AA00081913F01882309F453C1853239F493FDA4
:102AB000859193FF81913F01853229F4B70190E020
:102AC0000E942817E7CF912C212C312CFFE1F31520
:102AD00038F08B3211F190F4803209F1833229F110
:102AE00037FC3CC020ED280F2A3050F536FE20C0C0
:102AF0008AE0989E200D1124922E06C08D3291F00E
:102B0000803371F7689430F8F30193FD859193FF5A
:102B100081913F018111DACF21C0689431F8689426
:102B200032F8F2CF689433F8EFCF689434F8ECCFF2
:102B3000EAE02E9E200D1124222E689435F8E4CF71
:102B40008E3229F436FC04C1689436F8DDCF8C3619
:102B500019F4689437F8D8CF8836B1F2982F9F7D52
:102B600095549330E0F08336A1F18337C1F183357A
:102B700009F063C02801F2E04F0E511CF801C0803B
:102B8000D180692D70E036FC02C06FEF7FEFC60187
:102B90000E9412174C01689437F882010AC00C5F3A
:102BA0001F4FFFE3F98388248394912C6501E894F7
:102BB00037F833FE2DC0522C8114910471F5552045
:102BC00009F468CFB70180E290E00E9428175A9478
:102BD000F6CFF801808189830E5F1F4FE4CF280173
:102BE000F2E04F0E511CF801C080D180692D70E0D9
:102BF00036FC02C06FEF7FEFC6010E941D174C012B
:102C00008201D5CFB70180E290E00E9428172A9474
:102C10002814190409F0B0F7CECFF60137FC8591DE
:102C200037FE81916F01B70190E00E942817511083
:102C30005A94F1E08F1A9108BFCF843619F0893683
:102C400009F077C0F80137FE6BC060817181828125
:102C500093810C5F1F4FF32DFF763F2E97FF09C026
:102C600090958095709561957F4F8F4F9F4F689499
:102C700037F82AE030E0A5010E945817C82ECA187C
:102C80008C2C432C36FE0CC0E89440F8C91440F458
:102C900034FE05C032FC03C0F32DFE7E4F2E892C7E
:102CA00044FE95C0FE01EC0DF11D8081803309F0DA
:102CB00087C0242D297E422E842D8870582E43FCF7
:102CC00095C040FE8FC09C2C821418F42C0C922CC2
:102CD000981844FE91C0B70180E390E00E94281745
:102CE00042FE09C088E790E041FE02C088E590E01E
:102CF000B7010E942817C91408F48AC0CA94D12CBD
:102D00009FEFC91AD90ACA0CDB1CF60182916F0128
:102D1000B70190E00E942817AC14BD04B1F74FCF63
:102D200060817181072E000C880B990B0E5F1F4F7D
:102D300092CFD32CE894D4F82AE030E0853739F1EB
:102D4000232D297FD22E8F3601F148F48835A9F042
:102D5000F701868197812B96E2E10C94A6148037C7
:102D600049F08837A9F7D4FE02C06894D2F820E170
:102D700030E00DC06894D4F8F6CF34FE03C0822F43
:102D80008660D82E20E132E002C028E030E0F80171
:102D9000D7FE0FC060817181828193810C5F1F4FCC
:102DA000A5010E945817C82ECA183D2CE89437F880
:102DB00067CF6081718190E080E00E5F1F4FF0CFA0
:102DC00042FC02C0839478CF8394839475CF842D82
:102DD000867809F471CFF6CFB70180E290E00E94C7
:102DE000281783948214C0F3512C73CF522C581897
:102DF000821408F46ECFF8CF842D867809F47BCF47
:102E00008BE241FE80E247FC8DE2B70190E071CF9A
:102E1000B70180E390E00E9428179A946CCF8FEF5F
:102E20009FEF99CFFC010590615070400110D8F7D9
:102E3000809590958E0F9F1F0895FC016150704002
:102E400001900110D8F7809590958E0F9F1F0895DF
:102E50000F931F93CF93DF93182F092FEB018B81D3
:102E600081FD09C01FEF0FEF812F902FDF91CF91D0
:102E70001F910F91089582FF14C02E813F818C8194
:102E80009D81281739073CF4E881F981CF0101962B
:102E90009983888310838E819F8101969F838E837F
:102EA000E3CFE885F985812F0995892BA1F3DACF46
:102EB000FA01AA27283051F1203181F1E8946F936B
:102EC0006E7F6E5F7F4F8F4F9F4FAF4FB1E03ED011
:102ED000B4E03CD0670F781F891F9A1FA11D680FAF
:102EE000791F8A1F911DA11D6A0F711D811D911DE2
:102EF000A11D20D009F468943F912AE0269F112457
:102F00003019305D3193DEF6CF010895462F4770BA
:102F1000405D4193B3E00FD0C9F7F6CF462F4F7015
:102F2000405D4A3318F0495D31FD4052419302D073
:102F3000A9F7EACFB4E0A695979587957795679519
:102F4000BA95C9F700976105710508959B01AC0119
:102F50000A2E06945795479537952795BA95C9F740
:102F6000620F731F841F951FA01D089513E0C4EF07
:102F7000D3E004C0FE010E9402152196C53FD1078F
:062F8000C9F7F894FFCF31
:102F8600040101000000000301010000000002012D
:102F9600010000000005010100000000FFD701DE6E
:102FA60001E301000000001B087B07A8078708D97A
:102FB60007B707CB0700000000F2097B072B0AEDD5
:102FC6000953097609630900000000C0087B072B36
:102FD6000ABF081C093209A7080D0A00554E4B4EB8
:102FE6004F574E00313233204D61696E2053742C99
:102FF600204170742034422C20537072696E6766CB
:1030060069656C6400454D455247454E435920411C
:103016004C4552543A202573207265717565737458
:1030260065642061742025732E20417564696F20C4
:1030360063616C6C206469737061746368696E6740
:10304600206E6F772E002B313030303030303030FC
:1030560030300039313100504F4C49434500464924
:0C3066005245004D45444943414C0000D8
:00000001FF
