:100000000C94D1030C94F9030C94F9030C942F1065
:100010000C942F100C942F100C94F9030C947B0F5C
:100020000C94F9030C94F9030C94EE100C949811B1
:100030000C94A7100C94F9030C94F9030C94F90395
:100040000C94310F0C94F9030C94FD0F0C94D70F02
:100050000C94F9030C94F9030C94F9030C94F90330
:100060000C94F9030C94F9032054494D454F555411
:1000700020284E6574776F726B20726567697374A0
:10008000726174696F6E206661696C656429005BDA
:1000900053595354454D5D2041726D656420616E26
:1000A0006420726561647920666F7220656D657287
:1000B00067656E6379206469737472657373206910
:1000C0006E7075742E00202F203331290020524588
:1000D000474953544552454420284353513A200040
:1000E0002E004E4F2053494D202F2050494E204C7A
:1000F0004F434B4544005B47534D5D205761697446
:10010000696E6720666F722063656C6C756C6172D6
:10011000206E6574776F726B207265676973747295
:100120006174696F6E2E2E2E200052454144590095
:100130004641494C454420284D6F64656D206E6FE3
:100140007420726573706F6E64696E6729005B4717
:10015000534D5D20436865636B696E672053494D5D
:100160002063617264207374617475732E2E2E2067
:10017000004F4B005B47534D5D20496E69746961C8
:100180006C697A696E672053494D3830304C206D68
:100190006F64756C652E2E2E20004F4B005B415511
:1001A00044494F5D20496E697469616C697A696E72
:1001B00067204446506C61796572204D696E692EE6
:1001C0002E2E20003D3D3D3D3D3D3D3D3D3D3D3DD7
:1001D0003D3D3D3D3D3D3D3D3D3D3D3D3D3D3D3D4F
:1001E0003D3D3D3D3D3D3D3D3D3D3D3D3D3D3D3D3F
:1001F0003D3D00205374616E64616C6F6E652048F4
:100200006F6D6520456D657267656E637920446921
:100210007370617463682053797374656D20202056
:1002200020000A3D3D3D3D3D3D3D3D3D3D3D3D3D8B
:100230003D3D3D3D3D3D3D3D3D3D3D3D3D3D3D3DEE
:100240003D3D3D3D3D3D3D3D3D3D3D3D3D3D3D3DDE
:100250003D005B5741524E494E475D2043656C6CF3
:10026000756C6172206E6574776F726B2072656752
:10027000697374726174696F6E206C6F737421009E
:100280000A3E3E3E204D45444943414C2042555490
:10029000544F4E20545249474745524544203C3C18
:1002A0003C000A3E3E3E20464952452042555454A9
:1002B0004F4E20545249474745524544203C3C3C10
:1002C000000A3E3E3E20504F4C4943452042555483
:1002D000544F4E20545249474745524544203C3CD8
:1002E0003C005B44495350415443485D2047726190
:1002F000636520706572696F6420657870697265E6
:10030000642E20456E676167696E6720656D657252
:1003100067656E6379206469737061746368210036
:10032000207365636F6E64732072656D61696E69B9
:100330006E672E2E2E005B434F554E54444F574E42
:100340005D2041626F72742077696E646F773A2026
:10035000005B41424F52545D2043616E63656C20E7
:10036000627574746F6E207072657373656421209A
:10037000456D657267656E63792061626F72746541
:10038000642E005B534D535D205761726E696E673A
:100390003A20534D53207472616E736D69737369A3
:1003A0006F6E206661696C6564206F72207175657F
:1003B0007565642E005B534D535D204261636B7520
:1003C0007020534D53207375636365737366756C4A
:1003D0006C792073656E742E005B534D535D204421
:1003E00069737061746368696E67206261636B75BD
:1003F0007020656D657267656E637920534D53207B
:10040000616C6572742E2E2E005B43414C4C5D2056
:100410004469616C20636F6D6D616E642066616913
:100420006C65642E005B43414C4C5D204469616CFB
:1004300020636F6D6D616E642073656E742E204D48
:100440006F6E69746F72696E672063616C6C207384
:10045000746174652E2E2E00292E2E2E002F002062
:1004600028417474656D7074200020617420005BF5
:1004700043414C4C5D204469616C696E6720005BB0
:1004800043414C4C5D20436172726965722064691E
:1004900073636F6E6E6563746564206F7220636151
:1004A0006C6C2064726F707065642E005B43414C0D
:1004B0004C5D2052656D6F74652070617274792097
:1004C000646964206E6F7420616E737765722E00AC
:1004D0005B43414C4C5D2052656D6F7465206C69C7
:1004E0006E6520697320425553592E005B43414C81
:1004F0004C5D203E3E3E2043414C4C20414E5357E4
:100500004552454420414E4420434F4E4E454354AE
:100510004544203C3C3C005B43414C4C5D205269CF
:100520006E67696E672074696D656F757420286EDB
:100530006F20616E73776572206166746572203416
:100540003573292E005B41424F52545D2043616E4A
:1005500063656C20627574746F6E2070726573735E
:1005600065642E205465726D696E6174696E6720D2
:1005700063616C6C2E005B43414C4C5D20416C6CA4
:100580002072657065746974696F6E732066696E38
:1005900069736865642E20477261636566756C6C6B
:1005A000792068616E67696E672075702063616C81
:1005B0006C2E005B415544494F5D20506175736955
:1005C0006E672032207365636F6E647320626566A8
:1005D0006F7265206E657874207265706561742E27
:1005E0002E2E005B415544494F5D20547261636B70
:1005F0002072657065746974696F6E2066696E69D2
:10060000736865642E00292E2E2E002F002028529C
:10061000657065746974696F6E20005B415544496B
:100620004F5D20506C6179696E6720766F696365F4
:10063000207061796C6F616420747261636B202338
:10064000005B43414C4C5D2052656D6F74652064C6
:1006500069737061746368657220656E6465642097
:100660007468652063616C6C2E005B41424F52548C
:100670005D2043616E63656C20627574746F6E20DB
:100680007072657373656420647572696E6720703B
:100690006C61796261636B2E20456E64696E6720C0
:1006A00063616C6C2E002E2E2E005B524554525905
:1006B0005D2057616974696E672033207365636FCD
:1006C0006E6473206265666F726520617474656D17
:1006D000707420005B414C4552545D204D61782080
:1006E0006469616C207265747269657320657863F2
:1006F00065656465642120456D657267656E637923
:100700002063616C6C20756E616E737765726564D1
:100710002E005B53595354454D5D204E6574776FE1
:10072000726B2072652D65737461626C69736865A4
:10073000642E2041726D696E672073797374656DE4
:100740002E0000000000240027002A0000000008FE
:100750000002010000030407000000000000000088
:1007600002000000002300260029000000000025F0
:100770000028002B00040404040404040402020200
:1007800002020203030303030301020408102040D2
:1007900080010204081020010204081020002E121B
:1007A000191B11241FBECFEFD8E0DEBFCDBF24E060
:1007B000AEE9B2E001C01D92AC38B207E1F712E039
:1007C000A0E0B1E0E4EDF1E402C005900D92AE3995
:1007D000B107D9F713E0C0EDD3E004C02197FE01C3
:1007E0000E94121CCF3CD107C9F70E9402130C943F
:1007F000DD200C9400000895833081F028F48130CE
:1008000099F08230A9F008958730A9F08830C9F0B6
:100810008430B1F4809180008F7D03C0809180008E
:100820008F7780938000089584B58F7784BD089575
:1008300084B58F7DFBCF8091B0008F778093B0001F
:1008400008958091B0008F7DF9CFCF93DF93282F4B
:1008500030E0F901E45BF84F8491F901E757F84F74
:10086000D491F901EB58F84FC491CC23A1F0811138
:100870000E94FC03EC2FF0E0EE0FFF1FEF59F84F42
:10088000A591B491EC91ED2381E090E009F480E032
:10089000DF91CF91089580E090E0FACF1F93CF933E
:1008A000DF93282F30E0F901E45BF84F8491F901E0
:1008B000E757F84FD491F901EB58F84FC491CC2386
:1008C000A9F0162F81110E94FC03EC2FF0E0EE0F2F
:1008D000FF1FE559F84FA591B4918FB7F894EC91AB
:1008E000111108C0D095DE23DC938FBFDF91CF912B
:1008F0001F910895DE2BF8CFCF93DF9390E0FC019A
:10090000E757F84F24918B58984FFC018491882326
:10091000C9F090E0880F991FFC01EE5BF84FA5919C
:10092000B491FC01E559F84FC591D49161110DC006
:100930009FB7F8948C91209582238C9388812823EB
:1009400028839FBFDF91CF910895623051F49FB704
:10095000F8943C91822F809583238C93E8812E2BF1
:10096000EFCF8FB7F894EC912E2B2C938FBFEACF5B
:100970008F929F92AF92BF92CF92DF92EF92FF92AF
:10098000CF936B0190911C01891769F09F3F09F487
:100990006FC0CF91FF90EF90DF90CF90BF90AF905E
:1009A0009F908F900895E0E6F7E0C491C7FDF1CFE6
:1009B00061E00E947C04CC2319F0C23009F02CC104
:1009C000F12CE12C60E072E18AE790E0A70196014A
:1009D0000E94F31B49015A01DA01C9010197A109DB
:1009E000B1098F3F9105A105B10509F00CF4F8C0DC
:1009F00060E472E48FE090E0A70196010E94F31B8F
:100A00002150310941095109C23009F0AAC082E0E0
:100A10002F3F31054105510509F00CF492C160E901
:100A200070ED83E090E0A70196010E94F31B215036
:100A300031094109510983E02F3F31054105510535
:100A400009F00CF47EC168E478EE81E090E0A70143
:100A500096010E94F31B21503109410951092F3F92
:100A600031054105510511F00CF099C084E069C1D0
:100A700080931C01E0E6F7E0C491CF3F09F489CFF1
:100A8000C13039F148F0C23009F445C0C7FD81CF0B
:100A900061E00E947C0491CF14BC15BC94B59260B7
:100AA00094BD95B5916095BD282F30E0F901EB58C4
:100AB000F84FE491F0E0EE0FFF1FE559F84F459134
:100AC0005491F901E757F84FE491E093AB03C0E08C
:100AD0006FCF1092800010928100909181009860F9
:100AE0009093810090918100916090938100282FD4
:100AF00030E0F901EB58F84FE491F0E0EE0FFF1F02
:100B0000E559F84F45915491F901E757F84FE491B1
:100B1000E093AA034DCF1092B0001092B1009091D3
:100B2000B00092609093B0009091B100916090936A
:100B3000B100282F30E0F901EB58F84FE491F0E0D4
:100B4000EE0FFF1FE559F84F459154915093A903BB
:100B50004093A803F901E757F84FE491E093A70306
:100B600027CF2F3F31054105510509F00CF452C044
:100B700068E478EE81E090E0A70196010E94F31B03
:100B80002150310941095109CC2309F4AFC02F3F4D
:100B900031054105510511F00CF0B0C067CF64E29A
:100BA00074EF80E090E0A70196010E94F31B2150B2
:100BB00031094109510985E02F3F310541055105B2
:100BC00009F008F4BEC062E17AE780E090E0A70196
:100BD00096010E94F31B21503109410951099CC023
:100BE0009C0181E0C111ADC095B5987F892B85BD71
:100BF00027BD8FEF9FEFDC018093B4039093B50383
:100C0000A093B603B093B70380916E008260809387
:100C10006E00BFCE82E0E6CFF12CE12C60E072E105
:100C20008AE790E0A70196010E94F31B2150310949
:100C30004109510991E02115310581E0480751052D
:100C40006CF068E478EE81E090E0A70196010E94E4
:100C5000F31B215031094109510993E0C13009F0DA
:100C600076C080918100887F892B809381003093AA
:100C70008900209388008FEF9FEFDC018093B00301
:100C80009093B103A093B203B093B30380916F002C
:100C9000826080936F007DCE2093B3008FEF9FEF33
:100CA000DC018093AC039093AD03A093AE03B093AB
:100CB000AF03809170008260809370006ACE84E000
:100CC0002F3F31054105510509F008F48DCF9AE019
:100CD000B594A794979487949A95D1F7A501940118
:100CE000215031094109510985E07ECF83E02F3F32
:100CF00031054105510509F00CF476CF62E17AE740
:100D000080E090E0A70196010E94F31B2150310979
:100D100041095109CC2399F286E02F3F3105410565
:100D2000510579F070F08AE0B594A7949794879470
:100D30008A95D1F7A5019401215031094109510942
:100D400087E09091B100987F892B8093B100C130EA
:100D500009F48DCFC23009F49FCFC1111ACE48CF0C
:100D60003FB7F8948091A3039091A403A091A503A9
:100D7000B091A60326B5A89B05C02F3F19F0019698
:100D8000A11DB11D3FBFBA2FA92F982F8827BC01E5
:100D9000CD01620F711D811D911D42E0660F771F0D
:100DA000881F991F4A95D1F708958F929F92AF920D
:100DB000BF92CF92DF92EF92FF924B015C010E94B3
:100DC000B0066B017C010E94B0066C197D098E098A
:100DD0009F09683E734081059105A8F321E0821ABE
:100DE0009108A108B10888EEC80E83E0D81EE11C66
:100DF000F11C81149104A104B10429F7FF90EF9034
:100E0000DF90CF90BF90AF909F908F9008952FB7B5
:100E1000F89460919F037091A0038091A103909139
:100E2000A2032FBF089590911C0189130BC0E0E627
:100E3000F7E0E4919FEF90931C01E13049F028F036
:100E4000E23061F060E00C944E0410926E00FACF34
:100E500090916F009D7F90936F00F4CF9091700000
:100E60009D7F9093700091E09093B0009091B100BD
:100E7000987F94609093B1001092B300E3CFCF932A
:100E8000DF93C2E8D4E060E679E088810E94B8048C
:100E900060E570E080E090E00E94D50660E87CE0CC
:100EA00088810E94B80464E670E080E090E00E94CF
:100EB000D50688810E9413071982DF91CF9108958A
:100EC000CF93DF93C2E8D4E060EF7AE088810E949C
:100ED000B80464E670E080E090E00E94D50668E720
:100EE00075E088810E94B80466E970E080E090E0D7
:100EF0000E94D50688810E9413071982DF91CF9145
:100F00000895AF92BF92CF92DF92EF92FF920F932C
:100F10001F93CF93DF936C017B018B01040F151F8F
:100F2000EB015E01AE18BF08C017D10759F06991F7
:100F3000D601ED91FC910190F081E02DC60109955B
:100F4000892B79F7C501DF91CF911F910F91FF9008
:100F5000EF90DF90CF90BF90AF900895CF93DF9345
:100F6000CDB7DEB72A970FB6F894DEBF0FBECDBF60
:100F7000472F50E0282F30E02B5F3E4F240F351FC6
:100F8000260F311D3195219531091E821D829EE764
:100F900099839FEF9A8396E09B839FEE9A878C8339
:100FA0007E836F83388729874AE050E0BE016F5FF8
:100FB0007F4F83E694E00E9481072A960FB6F8944B
:100FC000DEBF0FBECDBFDF91CF910895FC01538DE1
:100FD000448D252F30E0842F90E0821B930B541713
:100FE00010F0CF96089501970895FC01918D828DA0
:100FF000981761F0A28DAE0FBF2FB11D5D968C9139
:10100000928D9F5F9F73928F90E008958FEF9FEF77
:101010000895FC01918D828D981731F0828DE80F33
:10102000F11D858D90E008958FEF9FEF0895FC01ED
:10103000918D228D892F90E0805C9F4F821B9109BA
:101040008F739927089588EB93E00E94170821E099
:10105000892B09F420E0822F089580E090E0892B0D
:1010600029F00E94230881110C9400000895FC01CE
:10107000A48DA80FB92FB11DA35ABF4F2C91848DF9
:1010800090E001968F739927848FA689B7892C9356
:10109000A089B1898C91837080648C93938D848DA9
:1010A000981306C00288F389E02D80818F7D8083AC
:1010B0000895EF92FF920F931F93CF93DF93EC016C
:1010C00081E0888F9B8D8C8D98131AC0E889F989EF
:1010D000808185FF15C09FB7F894EE89FF896083F2
:1010E000E889F98980818370806480839FBF81E073
:1010F00090E0DF91CF911F910F91FF90EF900895B5
:10110000F62E0B8D10E00F5F1F4F0F731127E02E8F
:101110008C8D8E110CC00FB607FCFACFE889F989C7
:10112000808185FFF5CFCE010E943708F1CFEB8D8E
:10113000EC0FFD2FF11DE35AFF4FF0829FB7F8949B
:101140000B8FEA89FB8980818062CFCF0F931F9339
:10115000CF93DF938C01D0E0C0E0F801EC0FFD1FCE
:101160006491662341F088EB93E00E945908892B33
:1011700011F02196F2CFCE01DF91CF911F910F9107
:101180000895CF93DF93EC01888D8823B9F0AA8965
:10119000BB89E889F9898C9185FD03C0808186FD32
:1011A0000DC00FB607FCF7CF8C9185FFF2CF808181
:1011B00085FFEDCFCE010E943708E9CFDF91CF91B7
:1011C000089520917A0330917B032817390771F431
:1011D0009091780380917903981741F0E09178031A
:1011E000F0E0E85CFC4F808190E008958FEF9FEF86
:1011F0000895EF92FF920F931F93CF93DF93DC013B
:101200005C96ED90FC905D97E114F10479F481E037
:1012100090E013969C938E93129790E080E0DF917C
:10122000CF911F910F91FF90EF9008955196ED91FE
:10123000FC91529750968C915097982F90950FB79C
:101240005E962C915E97122F127021FD6095F89496
:101250002081112319F1282B2083E7012197F1F731
:1012600028E0462F50E0308160FF1AC0382B3083D1
:10127000E7012197F1F7BA0175956795215089F734
:10128000112381F08081892380830FBF5C968D912B
:101290009C910197F1F781E090E0C1CF2923DCCF49
:1012A0003923E5CF9081892BEFCF20917A033091BC
:1012B0007B032817390761F4809179032091780323
:1012C00090E0805C9F4F821B91098F73992708954E
:1012D00090E080E0089520917A0330917B032817F5
:1012E0003907B9F49091780380917903981789F0C0
:1012F000E0917803F0E0E85CFC4F80812091780376
:1013000030E02F5F3F4F2F7333272093780390E017
:1013100008958FEF9FEF08955091800340917F03D0
:10132000852F90E0242F30E0541718F0821B930B88
:101330000895805B9F4FFACF80918003E0917F03F7
:101340008E1751F0EF5FE03508F0E0E0F0E0E85193
:10135000FD4F808190E008958FEF9FEF0895809179
:10136000800390917F03891769F09F5F903508F0A3
:1013700090E0E92FF0E0E851FD4F808190937F03EA
:1013800090E008958FEF9FEF089586E594E00E9426
:101390008C09181619062CF486E594E00E94AF0912
:1013A000F4CF089590917D039F5F943408F090E00E
:1013B00020917C032917E1F32FB7F89430917E0335
:1013C000332349F0E92FF0E0E256FD4F80839093FC
:1013D0007D032FBF089591E090937E038093E302F5
:1013E0001092E20282E086BB80916F00826080935F
:1013F0006F00809180008F7B806880938000809157
:101400008400909185004096909389008093880095
:10141000E0CF8F929F92AF92BF92EF92FF921F9375
:10142000CF93DF93EC0188810E9425047C0111E0B9
:10143000892B09F410E08981811731F00E94070798
:101440006B837C838D839E830E9407078B809C80A7
:10145000AD80BE80681979098A099B0969327105D6
:101460008105910590F08A81811779F01A83EF2820
:1014700061F4198281E0DF91CF911F91FF90EF908D
:10148000BF90AF909F908F900895198380E0F3CF25
:1014900080917E038111FCCF0895862F0E94D2098E
:1014A00081E090E0089590E080E00895CF93DF938D
:1014B000FC01248135816217730788F49B01C08188
:1014C000D1816CE270E0CE01820F931F0E94031E57
:1014D000009729F08C1B9D0BDF91CF9108958FEF22
:1014E0009FEFFACFAF92BF92CF92DF92EF92FF922F
:1014F0000F931F93CF93DF93DC01CD90DC90119776
:10150000C114D10439F01496CD91DC918C0176018F
:10151000209761F4DF91CF911F910F91FF90EF9091
:10152000DF90CF90BF90AF90089575015701BFEF46
:10153000AB1ABB0AF7018081082E000C990B0E94A0
:101540008E1B892B91F72197CC0DDD1D8881082EEC
:10155000000C990B0E948E1B892B29F0CE15DF05FC
:1015600010F02197F3CFAE014F5F5F4F4E195F0927
:10157000D80115965C934E931497CE14DF0420F493
:10158000B701C6010E94FA1DD801ED91FC91119797
:1015900014968D919C91E80FF91F1082BBCFCF93C9
:1015A000DF93DC0114962D913C911597232B79F054
:1015B000FB01CD91DC9160817181CE010E94151EED
:1015C000009729F08C1B9D0BDF91CF9108958FEF31
:1015D0009FEFFACFFB0101900020E9F73197AF01AF
:1015E000461B570BDC01ED91FC910280F381E02D4D
:1015F00009948F929F92AF92BF920F931F93CF93B4
:10160000DF93CDB7DEB7A1970FB6F894DEBF0FBE5C
:10161000CDBF19A2423008F44AE08E010F5D1F4F82
:10162000842E912CB12CA12CA50194010E94D11BD8
:10163000E62FB901CA01EA3004F5E05DD801EE9366
:101640008D01232B242B252B79F790E080E0109738
:1016500029F0BD0188EB93E00E94EA0AA1960FB63B
:10166000F894DEBF0FBECDBFDF91CF911F910F91D8
:10167000BF90AF909F908F900895E95CDFCFCF929D
:10168000DF92EF92FF92CF93DF936C01990FEE08F8
:10169000FF08F7FE19C06DE288EB93E00E9459083D
:1016A000EC0166277727CB016C197D098E099F090C
:1016B0004AE00E94F90A8C0F9D1FDF91CF91FF90A5
:1016C000EF90DF90CF9008954AE0C701B601DF9117
:1016D000CF91FF90EF90DF90CF900C94F90ACF93C9
:1016E000DF930E94A608EC0166E671E088EB93E0C8
:1016F0000E94EA0A8C0F9D1FDF91CF910895CF932E
:10170000DF93BC0186E594E00E94EA0AEC0166E6FC
:1017100071E086E594E00E94EA0A8C0F9D1FDF913C
:10172000CF9108950F931F93CF93DF93EC0188819E
:101730009981009759F02A813B812617370730F0AD
:1017400081E0DF91CF911F910F9108958B016F5F21
:101750007F4F0E943D1D009759F0998388831B831A
:101760000A832C813D81232B59F7FC011082E8CF9D
:1017700080E0E7CFEF92FF920F931F93CF93DF9319
:1017800000D0CDB7DEB78C0169831A82FC01E480FA
:10179000F580FFEFEF1AFF0AB7010E94920B882332
:1017A00081F0F8012081318184819581BE016F5FD4
:1017B0007F4F820F931F0E940E1EF801F582E48274
:1017C00081E00F900F90DF91CF911F910F91FF90CB
:1017D000EF900895CF93DF93EC0188819981009772
:1017E00011F00E94B41C198218821D821C821B8277
:1017F0001A82DF91CF910895EF92FF920F931F937A
:10180000CF93DF938C017B016115710561F0EB01D2
:1018100009900020E9F72197C61BD70BBE010E9453
:10182000920B81110BC0C8010E94EA0BC801DF9125
:10183000CF911F910F91FF90EF900895F801D583FC
:10184000C483B701808191810E940E1EEFCFEF9279
:10185000FF920F931F93CF93DF93EC017B011982CB
:1018600018821B821A821D821C82FB0101900020BB
:10187000E9F731978F01061B170BB8010E94920BF5
:10188000811109C0CE01DF91CF911F910F91FF907F
:10189000EF900C94EA0B1D830C83B701888199812A
:1018A000DF91CF911F910F91FF90EF900C940E1E3E
:1018B000FC0180819181009711F00C94B41C089573
:1018C0004F925F926F927F928F929F92AF92BF9250
:1018D000FF920F931F93CF93DF93CDB7DEB72C9773
:1018E0000FB6F894DEBF0FBECDBF8C015B0129019E
:1018F0003A010E94C509C5010E947F0B0E9407079B
:101900004B015C0168E671E0C8010E94270C0E944F
:101910000707681979098A099B0964157505860501
:101920009705E0F586E594E00E948C0918161906E3
:101930004CF486E594E00E94AF09682FC8010E942C
:10194000BA0BF0CF69E671E0CE0101960E94270C38
:10195000BE016F5F7F4FC8010E94CF0AFF24F3943E
:1019600097FF15C06CE671E0CE0107960E94270C28
:10197000BE01695F7F4FC8010E94CF0A9095F92E82
:10198000FF1CFF24FF1CCE0107960E94580CCE01BD
:1019900001960E94580CFF2009F4B9CFC8012C967B
:1019A0000FB6F894DEBF0FBECDBFDF91CF911F9170
:1019B0000F91FF90BF90AF909F908F907F906F900E
:1019C0005F904F900895CF92DF92EF92FF920F9326
:1019D0001F93CF93DF93CDB7DEB72C970FB6F89454
:1019E000DEBF0FBECDBF86E594E00E948C091816BD
:1019F00019060CF06FC068E671E0CE0107960E94F0
:101A0000270C0E9407076B017C010E9407076C19D5
:101A10007D098E099F096436710581059105A8F439
:101A200086E594E00E948C091816190674F786E57D
:101A300094E00E94AF098A3041F08D3031F3682F75
:101A4000CE0107960E94BA0BE0CFCE0107960E9406
:101A5000720A62E771E0CE0101960E94270CBE0176
:101A60006F5F7F4FCE0107960E94CF0A8C01CE0197
:101A700001960E94580C17FF11C167E771E0CE0173
:101A800001960E94270CBE016F5F7F4FCE01079623
:101A90000E94CF0A8C01CE0101960E94580C17FFBC
:101AA000FAC062E871E0CE0101960E94270CBE01E7
:101AB0006F5F7F4FCE0107960E94CF0A8C01CE0147
:101AC00001960E94580C17FFECC0CE0107960E94A9
:101AD000580C89CF2CED35E040E050E06CE871E027
:101AE000CE0107960E94600C67E771E0CE01019677
:101AF0000E94270CBE016F5F7F4FCE0107960E94A8
:101B0000CF0A8C01CE0101960E94580C17FFC3C06A
:101B100062E771E0CE0101960E94270CBE016F5F63
:101B20007F4FCE0107960E94CF0A8C01CE0101960D
:101B30000E94580C17FFB2C062E871E0CE01019616
:101B40000E94270CBE016F5F7F4FCE0107960E9457
:101B5000CF0A8C01CE0101960E94580C17FFA1C03C
:101B600064E971E0CE0101960E94270CBE016F5F0F
:101B70007F4FCE0107960E94CF0A8C01CE010196BD
:101B80000E94580C17FD7AC0B801CE0107960E943A
:101B9000560ABC016F5F7F4FCE0107960E94560A1E
:101BA0008C016C018FEFC81AD80AB601CE010796D6
:101BB0000E94560A101611060CF060C0081719078B
:101BC0000CF05CC08C018C159D0528F49C2D8D2D8E
:101BD0006801092F182F68E671E0CE0101960E9476
:101BE000270CEB84FC84CE14DF04C0F40E151F0513
:101BF00008F47801EF81F885EE0DFF1D1081108249
:101C00006F8178856C0D7D1DCE0101960E94FC0BC5
:101C10008F819885E80EF91EF7011083CE01019699
:101C20000E94720A89819A81009721F10E94521BB9
:101C300002E010E06730710528F4675D7E4FFB011C
:101C4000008110E0CE0101960E94580CCE0107964B
:101C50000E94580CC8012C960FB6F894DEBF0FBE38
:101C6000CDBFDF91CF911F910F91FF90EF90DF904B
:101C7000CF90089560E070E0CB01DACF69E671E0C3
:101C8000CE0101960E94270CCE0101960E94580CAD
:101C900010E000E0DBCF06E010E0D8CF04E010E079
:101CA000D5CF05E010E0D2CF8F929F92AF92BF9236
:101CB000CF92DF92EF92FF920F931F93CF93DF9318
:101CC000CDB7DEB72C970FB6F894DEBF0FBECDBFF1
:101CD0008C014A015B010E94C509C8010E947F0B6B
:101CE0000E9407076B017C0168E671E0CE01079650
:101CF0000E94270C0E9407076C197D098E099F0915
:101D0000681579058A059B05C8F586E594E00E946B
:101D10008C091816190654F486E594E00E94AF0960
:101D2000682FCE0107960E94BA0BEFCF69E671E0EB
:101D3000CE0101960E94270CBE016F5F7F4FCE013E
:101D400007960E94CF0A8C01CE0101960E94580C82
:101D500017FF2DC06CE671E0CE0101960E94270CA2
:101D6000BE016F5F7F4FCE0107960E94CF0A8C01A4
:101D7000CE0101960E94580C17FDBCCF10E0CE0199
:101D800007960E94580C812F2C960FB6F894DEBF50
:101D90000FBECDBFDF91CF911F910F91FF90EF90BC
:101DA000DF90CF90BF90AF909F908F90089511E0FB
:101DB000E6CF0E94C50940ED57E060E070E08CE995
:101DC00091E00C94540E1F93CF93DF93CDB7DEB701
:101DD00062970FB6F894DEBF0FBECDBF20ED37E09F
:101DE00040E050E060EA71E0CE010D960E94600C88
:101DF00069EA71E0CE0101960E94270CBE016F5F77
:101E00007F4FCE010D960E94CF0A11E097FF16C0BA
:101E10006CEA71E0CE0107960E94270CBE01695F53
:101E20007F4FCE010D960E94CF0A9095192F111F5A
:101E30001127111FCE0107960E94580CCE01019662
:101E40000E94580CCE010D960E94580C812F62966C
:101E50000FB6F894DEBF0FBECDBFDF91CF911F91BB
:101E600008951F920F920FB60F9211242F933F9354
:101E70008F939F93AF93BF9380919F039091A00303
:101E8000A091A103B091A20330919E0323E0230F00
:101E90002D3758F50196A11DB11D20939E03809307
:101EA0009F039093A003A093A103B093A2038091FA
:101EB000A3039091A403A091A503B091A60301965A
:101EC000A11DB11D8093A3039093A403A093A50328
:101ED000B093A603BF91AF919F918F913F912F91A6
:101EE0000F900FBE0F901F90189526E8230F0296B3
:101EF000A11DB11DD2CF1F920F920FB60F921124C8
:101F00002F933F934F935F936F937F938F939F9301
:101F1000AF93BF93EF93FF938091AC039091AD0388
:101F2000A091AE03B091AF03892B8A2B8B2BD1F1FB
:101F30009091A703E091A803F091A90380818927DC
:101F400080838091AC039091AD03A091AE03B091DA
:101F5000AF03181619061A061B069CF48091AC03F1
:101F60009091AD03A091AE03B091AF030197A10989
:101F7000B1098093AC039093AD03A093AE03B093EB
:101F8000AF03FF91EF91BF91AF919F918F917F919F
:101F90006F915F914F913F912F910F900FBE0F90D6
:101FA0001F90189580911C010E941307EACF1F9281
:101FB0000F920FB60F9211242F933F934F935F937D
:101FC0006F937F938F939F93AF93BF93EF93FF9301
:101FD00088EB93E00E943708FF91EF91BF91AF919A
:101FE0009F918F917F916F915F914F913F912F9131
:101FF0000F900FBE0F901F9018951F920F920FB663
:102000000F9211242F938F939F93EF93FF93E0915F
:10201000C803F091C9038081E091CE03F091CF0312
:1020200082FD1BC090818091D1038F5F8F732091BF
:10203000D203821741F0E091D103F0E0E854FC4F65
:10204000958F8093D103FF91EF919F918F912F9165
:102050000F900FBE0F901F9018958081F4CF1F92A4
:102060000F920FB60F9211242F933F934F935F93CC
:102070006F937F938F939F93AF93BF93EF93FF9350
:10208000E0917A03F0917B03309749F0A685B785FC
:102090008585968D91FF14C09C918923A1F4FF91B1
:1020A000EF91BF91AF919F918F917F916F915F91D0
:1020B0004F913F912F910F900FBE0F901F90189549
:1020C0009C91892361F7A389B4899C918589809526
:1020D00089238C93868997890197F1F7608D718D9B
:1020E000A685B785558538E020E0CB010197F1F74B
:1020F000822F90E095958795282F4C91452309F0E4
:102100002068315091F7868D81FD2095809179036B
:1021100090E001968F73992730917803381799F0E2
:10212000A0917903B0E0A85CBC4F2C938093790315
:10213000828D938D0197F1F7A389B4898C9195894C
:10214000892B8C93ACCF868D8160868FF1CF1F92C7
:102150000F920FB60F9211242F938F939F93EF93AB
:10216000FF9380916F008B7F80936F00809181003F
:102170008F7B80938100809181032091E70220581A
:102180009091E602893020F49695922B8F5FFACFDA
:102190009093E602809180038F5F803508F080E0A5
:1021A00020917F03281739F0E82FF0E0E851FD4F28
:1021B00090838093800310928103809181008F7BB4
:1021C000809381001092E702FF91EF919F918F9190
:1021D0002F910F900FBE0F901F9018951F920F9286
:1021E0000FB60F9211242F933F934F935F936F93EA
:1021F0007F938F939F93AF93BF93EF93FF938091C0
:102200008600909187004091E7022091810044234D
:10221000F1F12F7B209381001092E702309181032E
:1022200031113CC0411122C02091820330918303BF
:10223000280F391F30938B0020938A0024E026BB9F
:1022400020916F00246020936F00209184033091CF
:102250008503820F931F36952795280F391F3093DA
:10226000E5022093E40281E080938103FF91EF91E6
:10227000BF91AF919F918F917F916F915F914F919E
:102280003F912F910F900FBE0F901F9018952064D3
:102290002093810020E82093E702C0CF4091E40220
:1022A0005091E5026091840370918503DB01A09554
:1022B000B0952091E602E091E702841B950BA817E8
:1022C000B90768F126952E2B460F571F3F5F861BD7
:1022D000970B3930A0F32093E60280916F008B7F3B
:1022E00080936F00809180038F5F803508F080E0DD
:1022F00090917F03981749F0E82FF0E09091E60263
:10230000E851FD4F908380938003809181008F7B03
:10231000809381001092E70210928103A7CF20934F
:10232000E6025093E5024093E402309381039ECF8E
:102330001F920F920FB60F9211242F933F934F933A
:102340005F936F937F938F939F93EF93FF9320916E
:102350007E036091E3028091880090918900409112
:102360008403509185033091E2022A3070F5840F86
:10237000951F762F7170293009F471E066952F5FF3
:10238000371799F3309180007723E1F0306C309368
:10239000800090938900809388007093E20260939C
:1023A000E30220937E03FF91EF919F918F917F91A4
:1023B0006F915F914F913F912F910F900FBE0F90B2
:1023C0001F9018953F7B3068E2CF30917D03E091FC
:1023D0007C033E1319C02A3051F42BE020937E0376
:1023E000840F951F9093890080938800DCCF109212
:1023F0007E03809180008F738093800080916F00B6
:102400008D7F80936F00CFCFEF5FE43408F0E0E082
:10241000E0937C03F0E0E256FD4F30813093E3021D
:102420001092E202309180003F7B30683093800050
:102430002A3071F42091840330918503820F931F19
:10244000909389008093880081E080937E03ABCFD6
:1024500080918400909185004096F2CF1092BB034A
:102460001092BA0388EE93E0A0E0B0E08093BC0342
:102470009093BD03A093BE03B093BF0324E331E068
:102480003093B9032093B80325EC30E03093C503B3
:102490002093C40324EC30E03093C7032093C60399
:1024A00020EC30E03093C9032093C80321EC30E0E6
:1024B0003093CB032093CA0322EC30E03093CD035A
:1024C0002093CC0326EC30E03093CF032093CE034F
:1024D0001092D1031092D2031092D3031092D4031E
:1024E00027E02093820410928304109284041092B7
:1024F0008504109286041092870426E020936204DB
:1025000010926604109265048093670490936804A7
:10251000A0936904B0936A0488E591E09093640401
:102520008093630410927A041092790410927C04D0
:1025300010927B0410927E0410927D04109280040D
:1025400010927F04609181046E7F6D7F609381049F
:102550006695617081E068278AE00E944E0461E020
:102560008AE00E947C04E3E9F7E0E491E0937304DD
:10257000EFE7F7E0E491F0E0EE0FFF1FE559F84FC9
:1025800085919491909375048093740460E08BE03E
:102590000E947C048091810481FD04C061E08BE095
:1025A0000E944E048BE080936F04E4E9F7E0E4912D
:1025B000E0937004E0E8F7E0E491F0E0EE0FFF1F35
:1025C000EF59F84F85919491909372048093710420
:1025D0008EE080935504109259041092580488EEAE
:1025E00093E0A0E0B0E080935A0490935B04A09342
:1025F0005C04B0935D0486E491E09093570480936B
:1026000056040895CF93DF93CDB7DEB7C65CD109EA
:102610000FB6F894DEBF0FBECDBF789484B582604C
:1026200084BD84B5816084BD85B5826085BD85B576
:10263000816085BD80916E00816080936E001092F4
:10264000810080918100826080938100809181006F
:102650008160809381008091800081608093800000
:102660008091B10084608093B1008091B00081605E
:102670008093B00080917A00846080937A0080918A
:102680007A00826080937A0080917A0081608093E2
:102690007A0080917A00806880937A001092C1005D
:1026A000E091C803F091C90382E08083E091C40304
:1026B000F091C5031082E091C603F091C7038FEC3F
:1026C00080831092D003E091CC03F091CD0386E09B
:1026D0008083E091CA03F091CB0380818061808385
:1026E000E091CA03F091CB03808188608083E09100
:1026F000CA03F091CB03808180688083E091CA0394
:10270000F091CB0380818F7D808382E292E00E94F2
:102710006F0B83EF91E00E946F0B84EC91E00E94BD
:102720006F0B61E08CE00E947C0461E08DE00E9410
:102730007C0460E08CE00E944E0461E08DE00E9429
:102740004E0461E0809182040E947C0480918204A6
:102750000E94130762E082E00E947C0462E083E052
:102760000E947C0462E084E00E947C0462E085E0D8
:102770000E947C048DE991E00E94A60862E08091AD
:1027800062040E947C0410927E0410927D041092D8
:102790007C0410927B0410927A04109279048DE9E3
:1027A00091E09093800480937F0490916F04963120
:1027B00008F047C02DEB30E030937A042093790481
:1027C0002BE931E030937C0420937B042CE231E050
:1027D00030937E0420937D042091680084E098303B
:1027E00048F031E09E3008F430E081E001C0880F0D
:1027F0003A95EAF7822B809368002DE630E0983016
:1028000050F02BE630E09E3030F02CE630E0963190
:1028100010F030E020E03093770420937604292FE5
:1028200030E0983008F0D3C081E001C0880F9A955D
:10283000EAF78093780480917F0490918004019757
:10284000F1F780917D0490917E04892B49F1E0910C
:102850007A03F0917B0324E0E336F20709F1309725
:1028600039F0A389B4899C918589809589238C93BB
:10287000809181048E7F809381041092790310925D
:10288000780383E694E090937B0380937A03E0914E
:102890007604F0917704808190917804892B80836D
:1028A00068EC70E080E090E00E94D50664E170E0A2
:1028B00086E00E94AE0764E670E080E090E00E944F
:1028C000D5068AE991E00E946F0B84E791E00E94AF
:1028D000A60810926F001092800081E8809381001A
:1028E00083E896E090938503809384038BE39CE3D5
:1028F000909383038093820362E088E00E947C04CB
:1029000061E089E00E944E0461E089E00E947C045D
:10291000109281031092800310927F0310927E0325
:1029200010927D0310927C0380E286BB80936F003F
:1029300064EF71E080E090E00E94D5061AE048EE76
:1029400053E060E070E087EB91E00E94540E81114B
:10295000E6C564EF71E080E090E00E94D50611507A
:1029600071F761E0809155040E947C0460E08091E1
:1029700055040E944E0466E970E080E090E00E94F9
:10298000D50661E0809155040E944E0462E080917A
:1029900055040E947C0468EB7BE080E090E00E949C
:1029A000D5061AE048EE53E060E070E087EB91E076
:1029B0000E94540E8111B3C564EF71E080E090E095
:1029C0000E94D506115071F780E391E002C69E3057
:1029D00040F42850310981E001C0880F2A95EAF7B8
:1029E00028CF2E503109F7CF8AE291E00E946F0B79
:1029F00086EF90E00E94A6080E9407076B017C0109
:102A00000E9407076C197D098E099F09603375477D
:102A10008105910508F0E6C50E94E30E8111E5C528
:102A200068EE73E080E090E00E94D50680EE90E0D2
:102A30000E94A608E5CFB701CE0183579F4F0E94A1
:102A4000560AE816F9060CF0ECC55C0146E0E40E07
:102A5000F11C8E159F0510F057017C0168E671E0AE
:102A6000C8010E94270CCF56DF4FC880D980C159BA
:102A7000D040AC14BD0418F5EC14FD0408F4670153
:102A8000C357DF4FE881F981CD58D040EC0DFD1DD3
:102A9000F0801082C357DF4F68817981CD58D040D4
:102AA0006A0D7B1DC8010E94FC0BC357DF4F888154
:102AB0009981CD58D040C80ED91EF601F082C801C8
:102AC0000E94720A89819A81009709F46EC00E945F
:102AD000521B7B01C8010E94580CCE0183579F4FA7
:102AE0000E94580C8DEC90E00E94A608C7010E943D
:102AF0003F0B86EC90E00E946F0B60E08DE00E943F
:102B00004E0461E08CE00E944E040E943F0781E089
:102B100090E090939D0380939C038FE890E00E9447
:102B20006F0B9E012F5F3F4F69011E013DE8230E91
:102B3000311C01E010E067E0E62EF12C8091830467
:102B40008823A9F00E940707809084049090850450
:102B5000A0908604B0908704681579058A059B05C6
:102B600030F0809182040E941307109283040E9427
:102B70000707A0909C03B0909D0348E0A416B10401
:102B8000C0F453E0A516B10408F0F3C0E1E0AE16BE
:102B9000B10409F471C0F2E0AF16B10409F49CC0AD
:102BA00010939D0300939C03DCC160E070E0CB01B7
:102BB00090CF28E0A216B10499F7809087039090F7
:102BC0008803A0908903B0908A039B01AC01281967
:102BD00039094A095B0949015A0138E5831632E08F
:102BE0009306A104B104A8F060938703709388034F
:102BF0008093890390938A036091860381E068271C
:102C0000609386038DE00E944E0460E08CE00E9499
:102C10004E040E9407078090980390909903A0901B
:102C20009A03B0909B03681979098A099B0960315E
:102C300077428105910508F494C10E9407076093CB
:102C400098037093990380939A0390939B0348EEA3
:102C500053E060E070E087EB91E00E94540E88231F
:102C600009F47FC10E94E30E882309F47AC182E14E
:102C700097E00E946F0B94CF61E08CE00E944E04BD
:102C800060E08DE00E944E048EE091E00E94090A0F
:102C9000882309F43FC1B0929603A092950381EC7A
:102CA00092E00E946F0B0E94070760938F0370935E
:102CB0009003809391039093920310928B03109250
:102CC0008C0310928D0310928E0382E090E090931B
:102CD0009D0380939C0345C1809087039090880357
:102CE000A0908903B0908A039B01AC01281939098F
:102CF0004A095B0949015A0136E983169104A10486
:102D0000B104A8F0609387037093880380938903CC
:102D100090938A03B090860361E06B2560938603ED
:102D20008CE00E944E046B2D8DE00E944E040E94A8
:102D300007074B015C0140908F0350909003609017
:102D400091037090920385E191E00E94090A882323
:102D500009F44BC181E593E00E946F0B0E9460076C
:102D6000109296031092950360E08DE00E944E044D
:102D700017CF40908703509088036090890370902C
:102D80008A039B01AC012419350946095709290119
:102D90003A013AEF4316510461047104A8F06093BC
:102DA0008703709388038093890390938A036091CB
:102DB000860381E06827609386038DE00E944E04BD
:102DC00060E08CE00E944E0445E0A416B10409F4D2
:102DD00071C208F078C084E0A816B10409F4F7C104
:102DE00089ED93E00E946F0B61E08DE00E944E043C
:102DF000809195039091960301978330910508F097
:102E000068C1880F991FFC01ED5DFE4F80819181A3
:102E10004AEB51E05F934F939F938F938BED91E03B
:102E20009F938F931F928CE88F93DF92CF920E9493
:102E30002F1E0E94C5098CE192E09F938F9389E237
:102E400092E09F938F931F9288E28F933F922F92ED
:102E50000E942F1EC1010E947F0B0E9407074B0199
:102E60005C010FB6F894DEBF0FBECDBF0E9407070E
:102E7000681979098A099B096838734181059105A8
:102E800008F0D3C386E594E00E948C091816190651
:102E90006CF786E594E00E94AF098E3339F7B601EE
:102EA00086E594E00E94EA0A8AE10E94D2090E9423
:102EB00007072B013C0168E671E0CE018F539F4F5D
:102EC0000E94270C65C196E0A916B10409F47CC2E2
:102ED000E7E0AE16B10409F083CFB0909703B39446
:102EE000B092970332E03B1508F402C38AEA96E0F9
:102EF0000E94A6088B2D90E001960E943F0B86EA67
:102F000096E00E946F0B68EB7BE080E090E00E940F
:102F1000D5065AC187E091E00E94090A882371F121
:102F200052E0A52EB12CB0929603A092950382EAAE
:102F300092E00E946F0B0E94070760938F037093CB
:102F40009003809391039093920310928B031092BD
:102F50008C0310928D0310928E03B0929D03A09269
:102F60009C0380E090E0892B09F4E8CD0E942308BF
:102F7000882309F4DECD0E940000DBCD80E091E0E3
:102F80000E94090A882349F083E090E09093960319
:102F90008093950380E892E084CE0E94070780909A
:102FA000980390909903A0909A03B0909B0368199E
:102FB00079098A099B09603375478105910588F273
:102FC0000E940707609398037093990380939A0374
:102FD00090939B030E94E30E8111C3CF82E592E0A0
:102FE0000E946F0B88E090E072CE84189508A608C6
:102FF000B7080E94070740908B0350908C036090A5
:103000008D0370908E036419750986099709683ECF
:1030100073408105910508F44BC00E940707609337
:103020008B0370938C0380938D0390938E0368E8D9
:1030300073E180E090E0681979098A099B0928EE1C
:1030400033E040E050E00E94D11B77247394720E6D
:1030500086E393E00E94A608672D70E090E080E090
:103060004AE00E94F90A80E293E00E946F0B85E03B
:1030700090E08719910928EC289FB001299F700DD5
:1030800011246053784F809182040E94B80481E03B
:10309000809383040E94070768587F4F8F4F9F4F8C
:1030A00060938404709385048093860490938704CE
:1030B00038E8831633E19306A104B10408F451CF34
:1030C00082EE92E00E946F0B0E943F0783E090E047
:1030D000FECD8FEA91E09CCE86E594E00E948C09BB
:1030E000181619065CF486E594E00E94AF09682F73
:1030F000CE018F539F4F0E94BA0BEECF66E372E072
:10310000CE0185549F4F0E94270CBE0165547F4F0E
:10311000CE018F539F4F0E94CF0ABB24B39497FFD9
:1031200019C069E671E0CE018B549F4F0E94270CB5
:10313000BE016B547F4FCE018F539F4F0E94CF0A29
:103140009095B92EBB1CBB24BB1CCE018B549F4F4A
:103150000E94580CCE0185549F4F0E94580CB1100C
:1031600024C06CE671E0CE018B549F4F0E94270C67
:10317000BE016B547F4FCE018F539F4F0E94CF0AE9
:103180005C01CE018B549F4F0E94580CB7FE0CC0BF
:103190000E940707641975098609970968397A43F7
:1031A0008105910508F498CFB12CCE018F539F4F24
:1031B0000E94580C85EB93E0B11002C083E893E0C5
:1031C0000E946F0B1092970384E090E080CD8FE611
:1031D00094E00E94A6088091950390919603019730
:1031E0008330910508F05EC0880F991FFC01ED5DEA
:1031F000FE4F608171816115710521F088EB93E0CC
:103200000E94EA0A8AE694E00E94A6086DE372E052
:1032100088EB93E00E94EA0A8FE594E00E94A608FA
:103220008091970390E001960E943F0B8DE594E01A
:103230000E94A60883E090E00E943F0B88E594E09E
:103240000E946F0B0E94C5098DE392E09F938F93BC
:1032500081E492E09F938F931F9288E28F93DF9295
:10326000CF920E942F1E48EB5BE060E070E0C60149
:103270000E94540E0FB6F894DEBF0FBECDBF882358
:10328000A1F085E294E00E946F0B0E940707609313
:103290008F0370939003809391039093920385E042
:1032A00090E015CD6FEA71E0A9CF89E094E00E942B
:1032B0006F0B2CC085E191E00E94090A882369F018
:1032C00085E495E00E946F0B0E94D90E0E94600772
:1032D000109296031092950363CC0E94070780908A
:1032E0008F0390909003A0909103B090920368197F
:1032F00079098A099B09683C7F4A8105910558F044
:1033000087E195E00E946F0B0E94D90EF0929D0319
:10331000E0929C0326CE0E94E30C8430910509F4D0
:103320004DC008F042C0039709F01BCE8CEE94E02C
:103330000E946F0B68E077E0809182040E94B804DD
:1033400060E570E080E090E00E94D50660E679E0FC
:10335000809182040E94B80460E570E080E090E013
:103360000E94D50668EB7BE0809182040E94B8043D
:1033700068E770E080E090E00E94D50680918204CA
:103380000E941307109283046CED75E080E090E0DA
:103390000E94D506109293031092940326E030E029
:1033A00030939D0320939C03DCCD8530910549F03B
:1033B000069709F0D6CD8FE794E079CF80ED94E0C1
:1033C000A1CF8CEA94E09ECF85E191E00E94090AAA
:1033D000882351F08AE696E00E946F0B70E060E06F
:1033E00086E10E94AE0770CF0E94E30C8630910503
:1033F00011F0892B51F481E496E00E946F0B70E08C
:1034000060E086E10E94AE0763CF80919403811152
:1034100041C0809195039091960382309105B1F15E
:10342000AA24A394B12C039719F493E0A92EB12CEC
:103430008BE196E00E94A608B50190E080E04AE0AA
:103440000E94F90A8DE096E00E94A60880919303FD
:1034500090E001960E943F0B8BE096E00E94A60848
:1034600083E090E00E943F0B86E096E00E946F0BA5
:10347000B50182E10E94AE076CE271E080E090E06D
:103480000E94D50681E0809394036BCD82E0A82E44
:10349000B12CCECF809162040E942504892B09F4BF
:1034A00060CD83EE95E00E946F0B809193038F5F58
:1034B0008093930310929403833058F483EB95E048
:1034C0000E946F0B60ED77E080E090E00E94D506EF
:1034D00048CD86E795E00E946F0B68EE73E080E0D0
:1034E00090E00E94D5060E94D90E0E943F07F0CEC0
:1034F00084ED96E00E946F0B68E572E08091820493
:103500000E94B8046CE271E080E090E00E94D50671
:10351000809182040E94130710928304D9CE48EE52
:1035200053E060E070E088E492E00E94540E48EEC0
:1035300053E060E070E08DE492E00E94540E1F9230
:1035400086E08F931F921F9287E592E09F938F935F
:103550001F9288E18F938E010F5F1F4F1F930F9370
:103560000E942F1E4CED55E060E070E0C8010E9403
:10357000540E81E791E00E946F0B8EE491E00E946F
:10358000A60820ED37E040E050E065E672E0CE01AD
:1035900083579F4F0E94600C6EE672E0C8010E9444
:1035A000270CB801CE0183579F4F0E94CF0A7C01A0
:1035B000C8010E94580CCE0183579F4F0E94580C9F
:1035C0000FB6F894DEBF0FBECDBFF7FE0DCA82EE78
:1035D00090E00E946F0B88E090E090939D038093B1
:1035E0009C039FCA88E690E0F4CF20ED37E040E0EE
:1035F00050E06BE772E0CE0183579F4F0E94600C52
:1036000062E872E0C8010E94270CB801CE0183571E
:103610009F4F0E94CF0A7C01C8010E94580CF7FE00
:103620000ACAEE24EA94FE2C58CA8BE10E94D20901
:10363000C5CD86E491E09093570480935604809121
:103640006F008B7F80936F0080916F008F7D8093E0
:103650006F0080917F038093800380917E038111AE
:10366000FCCF80916F008D7F80936F0088E591E0A3
:10367000909364048093630480917A0390917B0318
:103680008356944071F4E0917604F0917704908130
:103690008091780480958923808310927B03109217
:1036A0007A0308951F93FC0199278827BC01E894A9
:1036B00011911032E9F3193010F01E30C8F31B32AB
:1036C00051F01D3249F4689406C00E94791B610FC5
:1036D000711D811D911D119110531A30B0F33EF4EC
:1036E00090958095709561957F4F8F4F9F4F1F915B
:1036F0000895592F482F372F262F660F771F881FC1
:10370000991F660F771F881F991F620F731F841FF1
:10371000951F660F771F881F991F089591110C94AC
:10372000971B803219F089508550C8F70895992762
:10373000882708952F923F924F925F926F927F92C7
:103740008F929F92AF92BF92CF92DF92EF92FF92B1
:103750000F931F93CF93DF93CDB7DEB7CA1BDB0B5D
:103760000FB6F894DEBF0FBECDBF09942A88398802
:1037700048885F846E847D848C849B84AA84B98409
:10378000C884DF80EE80FD800C811B81AA81B98115
:10379000CE0FD11D0FB6F894DEBF0FBECDBFED0129
:1037A0000895A1E21A2EAA1BBB1BFD010DC0AA1F82
:1037B000BB1FEE1FFF1FA217B307E407F50720F09A
:1037C000A21BB30BE40BF50B661F771F881F991F15
:1037D0001A9469F760957095809590959B01AC015E
:1037E000BD01CF010895052E97FB1EF400940E94A1
:1037F0000A1C57FD07D00E94D11B07FC03D04EF4D2
:103800000C940A1C50954095309521953F4F4F4F91
:103810005F4F089590958095709561957F4F8F4F7C
:103820009F4F0895EE0FFF1F0590F491E02D09942E
:103830000F931F93CF93DF938230910510F482E0B2
:1038400090E0E0918A04F0918B0430E020E0B0E059
:10385000A0E0309799F42115310509F44AC0281BDE
:10386000390B24303105D8F58A819B8161157105AA
:1038700089F1FB0193838283FE0111C04081518154
:103880000281138148175907E0F04817590799F446
:10389000109761F012960C93129713961C93329620
:1038A000CF01DF91CF911F910F91089500938A046A
:1038B00010938B04F4CF2115310551F042175307B3
:1038C00038F0A901DB019A01BD01DF01F801C1CF88
:1038D000EF01F9CF90938B0480938A04CDCFFE0142
:1038E000E20FF31F8193919322503109398328838A
:1038F000D7CF2091880430918904232B41F4209163
:103900001F01309120013093890420938804209175
:103910001D0130911E012115310541F42DB73EB72F
:103920004091210150912201241B350BE091880424
:10393000F0918904E217F307A0F42E1B3F0B281720
:10394000390778F0AC014E5F5F4F2417350748F018
:103950004E0F5F1F50938904409388048193919385
:103960009FCFF0E0E0E09CCFCF93DF930097E9F0AA
:10397000FC01329713821282A0918A04B0918B04C9
:10398000ED0130E020E01097A1F420813181820F19
:10399000931F20918804309189042817390709F072
:1039A00061C0F0938904E0938804DF91CF9108957A
:1039B000EA01CE17DF07E8F54A815B819E014115D8
:1039C0005105B1F7E901FB83EA8349915991C40F8D
:1039D000D51FEC17FD0761F4808191810296840F59
:1039E000951FE90199838883828193819B838A83D0
:1039F000F0E0E0E012968D919C9113970097B9F555
:103A00002D913C911197CD010296820F931F209129
:103A10008804309189042817390739F6309751F511
:103A200010928B0410928A04B0938904A0938804A6
:103A3000BCCFD383C28340815181840F951FC817A7
:103A4000D90761F44E5F5F4F88819981480F591FF4
:103A5000518340838A819B81938382832115310521
:103A600009F0B0CFF0938B04E0938A049ECFFD0160
:103A7000DC01C0CF13821282D7CFB0E0A0E0E3E434
:103A8000FDE10C949C1B8C01009751F4CB010E942A
:103A9000181C8C01C801CDB7DEB7E0E10C94B81B4F
:103AA000FC01E60FF71F9C0122503109E217F307D2
:103AB00008F49DC0D901CD91DC911197C617D707A5
:103AC00098F0C530D10530F3CE01049786179707DB
:103AD00008F3C61BD70B2297C193D1936D937C93A8
:103AE000CF010E94B41CD6CF5B01AC1ABD0A4C01B9
:103AF0008C0E9D1EA0918A04B0918B04512C412CF8
:103B0000F12CE12C109731F5809188049091890473
:103B10008815990509F05CC04616570608F058C08C
:103B200080911D0190911E01009741F48DB79EB7C1
:103B30004091210150912201841B950BE817F90750
:103B400008F055C0F0938904E0938804F90171836B
:103B50006083A0CF8D919C91119712966C901297D3
:103B600013967C901397A815B90559F56C0142E09E
:103B7000C40ED11CCA14DB0420F1AC014A195B0944
:103B8000DA011296159780F0628273825183408326
:103B9000D9016D937C93E114F10471F0D701139670
:103BA000FC93EE93129776CF22968C0F9D1FF9010E
:103BB00091838083F301EFCFF0938B04E0938A0429
:103BC00069CF4816590608F42C017D01D3019ACF1C
:103BD000CB010E94181C7C01009749F0AE01B8018E
:103BE0000E94FA1DC8010E94B41C870153CF10E047
:103BF00000E050CFFB01DC0102C001900D9241506A
:103C00005040D8F70895FC018191861721F0882350
:103C1000D9F7992708953197CF010895FB01DC0169
:103C200001900D920020E1F70895FB015191552379
:103C3000A9F0BF01DC014D9145174111E1F759F49D
:103C4000CD010190002049F04D9140154111C9F37B
:103C5000FB014111EFCF81E090E001970895AEE0C4
:103C6000B0E0E5E3FEE10C94A81B0D891E898F8965
:103C7000988D26E02C831A83098397FF02C080E089
:103C800090E801979E838D83AE01455E5F4F698DFD
:103C90007A8DCE0101960E945F1E4D815E8157FD97
:103CA0000AC02F813885421753070CF49A01020F7E
:103CB000131FF80110822E96E4E00C94C41BABE0B5
:103CC000B0E0E5E6FEE10C949A1B7C013B018A0121
:103CD000FC0117821682838181FFC8C1CE01019643
:103CE0005C01F7019381F30193FD859193FF81912D
:103CF0003F01882309F453C1853239F493FD85913E
:103D000093FF81913F01853229F4B70190E00E9431
:103D10004F20E7CF912C212C312CFFE1F31538F007
:103D20008B3211F190F4803209F1833229F137FCA2
:103D30003CC020ED280F2A3050F536FE20C08AE026
:103D4000989E200D1124922E06C08D3291F0803362
:103D500071F7689430F8F30193FD859193FF819199
:103D60003F018111DACF21C0689431F8689432F8AC
:103D7000F2CF689433F8EFCF689434F8ECCFEAE0F0
:103D80002E9E200D1124222E689435F8E4CF8E3219
:103D900029F436FC04C1689436F8DDCF8C3619F46A
:103DA000689437F8D8CF8836B1F2982F9F7D955414
:103DB0009330E0F08336A1F18337C1F1833509F008
:103DC00063C02801F2E04F0E511CF801C080D18081
:103DD000692D70E036FC02C06FEF7FEFC6010E94D4
:103DE00039204C01689437F882010AC00C5F1F4FDC
:103DF000FFE3F98388248394912C6501E89437F8D4
:103E000033FE2DC0522C8114910471F5552009F414
:103E100068CFB70180E290E00E944F205A94F6CF1D
:103E2000F801808189830E5F1F4FE4CF2801F2E003
:103E30004F0E511CF801C080D180692D70E036FC16
:103E400002C06FEF7FEFC6010E9444204C01820147
:103E5000D5CFB70180E290E00E944F202A94281429
:103E6000190409F0B0F7CECFF60137FC859137FE83
:103E700081916F01B70190E00E944F2051105A9438
:103E8000F1E08F1A9108BFCF843619F0893609F016
:103E900077C0F80137FE6BC06081718182819381A8
:103EA0000C5F1F4FF32DFF763F2E97FF09C09095B3
:103EB0008095709561957F4F8F4F9F4F689437F82D
:103EC0002AE030E0A5010E947F20C82ECA188C2C61
:103ED000432C36FE0CC0E89440F8C91440F434FE7C
:103EE00005C032FC03C0F32DFE7E4F2E892C44FE0C
:103EF00095C0FE01EC0DF11D8081803309F087C073
:103F0000242D297E422E842D8870582E43FC95C086
:103F100040FE8FC09C2C821418F42C0C922C981804
:103F200044FE91C0B70180E390E00E944F2042FE22
:103F300009C088E790E041FE02C088E590E0B70143
:103F40000E944F20C91408F48AC0CA94D12C9FEF54
:103F5000C91AD90ACA0CDB1CF60182916F01B7019C
:103F600090E00E944F20AC14BD04B1F74FCF6081A8
:103F70007181072E000C880B990B0E5F1F4F92CF9B
:103F8000D32CE894D4F82AE030E0853739F1232D9A
:103F9000297FD22E8F3601F148F48835A9F0F70138
:103FA000868197812B96E2E10C94B61B803749F00D
:103FB0008837A9F7D4FE02C06894D2F820E130E037
:103FC0000DC06894D4F8F6CF34FE03C0822F86600B
:103FD000D82E20E132E002C028E030E0F801D7FE20
:103FE0000FC060817181828193810C5F1F4FA50199
:103FF0000E947F20C82ECA183D2CE89437F867CF5E
:104000006081718190E080E00E5F1F4FF0CF42FC35
:1040100002C0839478CF8394839475CF842D86785F
:1040200009F471CFF6CFB70180E290E00E944F20F3
:1040300083948214C0F3512C73CF522C58188214DD
:1040400008F46ECFF8CF842D867809F47BCF8BE20D
:1040500041FE80E247FC8DE2B70190E071CFB701ED
:1040600080E390E00E944F209A946CCF8FEF9FEFF7
:1040700099CFFC010590615070400110D8F78095F0
:1040800090958E0F9F1F0895FC0161507040019024
:104090000110D8F7809590958E0F9F1F08950F936C
:1040A0001F93CF93DF93182F092FEB018B8181FD95
:1040B00009C01FEF0FEF812F902FDF91CF911F913C
:1040C0000F91089582FF14C02E813F818C819D81C4
:1040D000281739073CF4E881F981CF0101969983CB
:1040E000888310838E819F8101969F838E83E3CF87
:1040F000E885F985812F0995892BA1F3DACFFA019B
:10410000AA27283051F1203181F1E8946F936E7F16
:104110006E5F7F4F8F4F9F4FAF4FB1E03ED0B4E007
:104120003CD0670F781F891F9A1FA11D680F791F48
:104130008A1F911DA11D6A0F711D811D911DA11D59
:1041400020D009F468943F912AE0269F1124301969
:10415000305D3193DEF6CF010895462F4770405D04
:104160004193B3E00FD0C9F7F6CF462F4F70405DB3
:104170004A3318F0495D31FD4052419302D0A9F70E
:10418000EACFB4E0A6959795879577956795BA9508
:10419000C9F700976105710508959B01AC010A2ECE
:1041A00006945795479537952795BA95C9F7620FA5
:1041B000731F841F951FA01D089513E0C0EDD3E069
:1041C00004C0FE010E94121C2196C13DD107C9F70F
:0441D000F894FFCF91
:1041D40004010100000000030101000000000201CD
:1041E400010000000005010100000000FF00008C38
:1041F4000480008902900295020302010202020671
:104204000000000059088107E607C1081708F507F0
:104214000908000000004D0A8107530A480A8C0966
:10422400AF099C0900000000F9088107530AFB0349
:1042340055096B09E1080D0A004F4B004552524FD6
:10424400520042555359004E4F2043415252494562
:1042540052004E4F20414E535745520041542B4378
:104264004C4343002B434C43433A20004154480001
:1042740041542B435245473F002C31002C35005507
:104284004E4B4E4F574E00415400313233204D6156
:10429400696E2053742C204170742034422C2053B6
:1042A4007072696E676669656C6400454D45524776
:1042B400454E435920414C4552543A2025732072AF
:1042C40065717565737465642061742025732E208F
:1042D400417564696F2063616C6C206469737061FB
:1042E400746368696E67206E6F772E002B313030EF
:1042F40030303030303030300041542B434D475350
:104304003D22257322002B434D47533A0039313166
:104314000041544425733B00415445300041542B23
:10432400434D47463D310041542B434D49433D25C0
:10433400752C25750041542B4350494E3F002B43A7
:1043440050494E3A2052454144590041542B43535D
:1043540051002B4353513A2000504F4C49434500E0
:0E43640046495245004D45444943414C000036
:00000001FF
